:020000040800F2
:10000000F8070020D5010008E5180008D3150008FE
:10001000E11800088D040008991E00080000000087
:10002000000000000000000000000000111900089E
:10003000C504000800000000E71800087F1A000847
:10004000EF010008EF010008EF010008EF010008D0
:10005000EF010008EF010008EF010008EF010008C0
:10006000EF010008EF010008EF010008EF010008B0
:10007000EF010008EF010008EF010008EF010008A0
:10008000EF010008EF010008EF010008EF01000890
:10009000EF010008EF010008EF010008EF01000880
:1000A000EF010008EF010008EF010008EF01000870
:1000B000EF010008EF010008EF010008EF01000860
:1000C000EF010008EF010008EF010008EF01000850
:1000D000EF010008591E0008EF010008EF010008B9
:1000E000EF010008EF010008EF010008EF01000830
:1000F000EF010008EF010008EF010008EF01000820
:10010000EF010008EF010008EF010008EF0100080F
:10011000EF010008EF010008EF010008EF010008FF
:10012000EF010008EF010008EF010008EF010008EF
:1001300000F002F800F03FF80AA090E8000C8244BA
:100140008344AAF10107DA4501D100F034F8AFF297
:10015000090EBAE80F0013F0010F18BFFB1A43F0A5
:1001600001031847D41E0000F41E0000103A24BFFB
:1001700078C878C1FAD8520724BF30C830C144BF0C
:1001800004680C607047000000230024002500264E
:10019000103A28BF78C1FBD8520728BF30C148BFEA
:1001A0000B607047752900F07780002070471FB5FD
:1001B0001FBD10B510BD00F037F91146FFF7F7FF6E
:1001C00001F0A6FE00F055F903B4FFF7F2FF03BCFF
:1001D00001F083FE0948804709480047FEE7FEE733
:1001E000FEE7FEE7FEE7FEE7FEE7FEE7FEE7FEE7E7
:1001F00004480549054A064B70470000FD1A0008EF
:1002000031010008F8010020F8070020F803002061
:10021000F8030020704700000FB4044910B503AA8A
:10022000029800F0D3F810BC5DF814FB1400002015
:100230002DE9F0410E460446002020622046E16888
:10024000884730B3252805D0D4E901219047206A9A
:10025000401CF2E7E168204600278847050018D0D7
:10026000A5F14100192802D820354FF40067324625
:10027000294620462760FFF795FF40B1012804D0AA
:10028000F61D26F007060836D8E7361DD6E72846BD
:10029000DAE7206ABDE8F0812DE9F0410646002446
:1002A00010687529314616A510D0AFF300800028DC
:1002B00002DA404213A507E031688A0701D512A58A
:1002C00002E0490704D511A5012401E0AFF3008045
:1002D00000210A2206F1240709E0B0FBF2FCB0FB82
:1002E000F2F302FB1C00303078541846491C0028F9
:1002F000F3D123462A463046BDE8F04100F00CB861
:10030000000000002D0000002B0000002000000075
:1003100070477047704770472DE9F0470D46994682
:100320009246044600F124080168880604D5E06975
:1003300021F01001216000E00120A84201DD471BEF
:1003400000E00027A1697A1902EB0900081AA061F0
:100350002078C00602D42046AFF30080002608E0D3
:10036000D4E901211AF806009047206A401C761C47
:1003700020624E45F4DB2078C0060AD52046AFF354
:10038000008006E0D4E9012130209047206A401C1B
:100390002062381EA7F10107F4DC07E0D4E901214F
:1003A00018F805009047206A401C2062281EA5F11D
:1003B0000105F3DC2046AFF300802078000602D56B
:1003C0000220BDE8F0870120FBE70000074B70B575
:1003D0000D467B4400F011F80446284600F020F852
:1003E00010B14FF0FF3070BD204670BD1F1B0000E4
:1003F00001694A1C02610878704700B58FB0CDE9E9
:1004000001310021059105497944CDE903101146D8
:100410006846FFF70DFF0FB000BD0000E5FFFFFFCE
:10042000007B00F080007047754600F02BF8AE4668
:1004300005006946534620F00700854618B020B5F0
:10044000FFF7D6FEBDE820404FF000064FF0000752
:100450004FF000084FF0000B21F00701AC46ACE86C
:10046000C009ACE8C009ACE8C009ACE8C0098D46D9
:10047000704710B50446AFF300802046BDE8104039
:10048000FFF7A2BE004870479401002000BFFEE7BE
:100490000146042901DB0020704701EB4100084AB6
:1004A00002EB80004078012808D1002001EB4102D6
:1004B000034B03EB820250700120EDE70020EBE7D5
:1004C000340100207047000070B50446002594F800
:1004D0002100022803D00420A0630125C1E0206888
:1004E000006820F00E00216808602068006820F095
:1004F0000100216808605C492068884252D95A4945
:1005000078392068884201D1012047E05649643992
:100510002068884201D1102040E0534950392068BA
:10052000884201D1801539E04F493C392068884222
:1005300001D1801432E04C4928392068884202D128
:100540004FF480302AE0484914392068884202D1AB
:100550004FF4801022E044492068884201D14004D1
:100560001CE042492068884201D1012016E03F4941
:1005700014312068884201D110200FE03B49283116
:100580002068884201D1801508E038493C31206854
:10059000884201D1801401E04FF480303349091FB3
:1005A000086051E0304978392068884201D1012043
:1005B00047E02D4964392068884201D1102040E08D
:1005C000294950392068884201D1801539E02649EF
:1005D0003C392068884201D1801432E02249283910
:1005E0002068884202D14FF480302AE01E49143935
:1005F0002068884202D14FF4801022E01A49206816
:10060000884201D140041CE018492068884201D189
:10061000012016E0154914312068884201D11020CC
:100620000FE0124928312068884201D1801508E086
:100630000E493C312068884201D1801401E04FF41A
:100640008030094980394860012084F8210000BFCA
:10065000002084F8200000BF606B10B12046616B61
:100660008847284670BD0000800002400804024010
:100670002DE9F847024600239C467BE14FF0010834
:1006800008FA03F4D1F8008008EA0400A0427DD102
:10069000DFF8F4A2D1F80480A8EB0A09D0453AD0DB
:1006A00014DCB8F1030F50D009DCB8F1000F31D0E1
:1006B000B8F1010F1CD0B8F1020F49D120E0B8F118
:1006C000110F18D0B8F1120F42D11EE0B9F5881FF2
:1006D00025D006DCB9F5803F20D0B9F5801F37D191
:1006E0001AE0B9F5001F18D0B9F5041F30D117E092
:1006F000D1F80CC02DE0D1F80C8008F1040C28E0F2
:10070000D1F80C8008F1080C23E0D1F80C8008F136
:100710000C0C1EE000BF00BF00BF00BF00BF00BF49
:10072000D1F80880B8F1000F02D14FF0040C0BE0B3
:10073000D1F80880B8F1010F03D14FF0080C146113
:1007400002E04FF0080C546103E04FF0000C00E0B1
:1007500000BF00BFFF2801D8904601E002F1040865
:100760004646FF2802D84FEA830803E0A3F10808B1
:100770004FEA88084746D6F800804FF00F0909FA7B
:1007800007F928EA09080CFA07F900E07AE048EAD4
:100790000908C6F80080D1F8048008F08058B8F144
:1007A000805F6FD100BFDFF8E481D8F8188048F08F
:1007B0000108DFF8D891C9F81880C846D8F8188021
:1007C00008F00108CDF8008000BF00BF4FEAB9383B
:1007D0004FEA930958F829504FEA83784FEA18797D
:1007E0004FF00F0808FA09F825EA0805DFF8A0819C
:1007F000424502D14FF0000824E0DFF898814245DD
:1008000002D14FF001081DE0DFF88C81424502D192
:100810004FF0020816E0DFF88481424502D14FF024
:1008200003080FE0DFF87881424502D14FF0040859
:1008300008E0DFF87081424502D14FF0050801E081
:100840004FF006084FEA83794FEA197908FA09F858
:1008500048EA0505DFF850814FEA930948F8295026
:10086000D1F8048008F48038B8F5803F0BD1DFF868
:100870003C81D8F8008048EA0008DFF83091C9F8D8
:1008800000800AE075E0DFF82481D8F8008028EACB
:100890000008DFF81891C9F80080D1F8048008F446
:1008A0000038B8F5003F0ED1DFF8008108F10408E8
:1008B000D8F8008048EA0008DFF8F09009F1040950
:1008C000C9F800800DE0DFF8E48008F10408D8F8EA
:1008D000008028EA0008DFF8D49009F10409C9F87B
:1008E0000080D1F8048008F48018B8F5801F0ED17C
:1008F000DFF8B88008F10808D8F8008048EA000856
:10090000DFF8A89009F10809C9F800800DE0DFF8C8
:100910009C8008F10808D8F8008028EA0008DFF871
:100920008C9009F10809C9F80080D1F8048008F416
:100930000018B8F5001F0ED1DFF8708008F10C0820
:10094000D8F8008048EA0008DFF8609009F10C0947
:10095000C9F800800DE0DFF8548008F10C08D8F8E1
:10096000008028EA0008DFF8449009F10C09C9F872
:1009700000805B1CD1F8008028FA03F8B8F1000F62
:100980007FF47CAEBDE8F887000011100010024033
:1009900000080140000C014000100140001401401B
:1009A00000180140001C0140080001400004014003
:1009B000024693680B400BB1012000E00020704715
:1009C0000AB1016101E00B0403617047014800684E
:1009D00070470000040000200348006803490978BC
:1009E0000844014908607047040000200C00002002
:1009F00010B50848006840F010000649086005205E
:100A000000F080F80F2000F007F800F02BF800202D
:100A100010BD00000020024070B504460E4800786A
:100A20004FF47A71B1FBF0F00C490968B1FBF0F5B5
:100A3000284600F0F7FB08B1012070BD102C07D24A
:100A400000222146501E00F01EF80548046001E017
:100A50000120F2E70020F0E70C0000200000002059
:100A600008000020704701460846002809DB00F016
:100A70001F0301229A4043099B0003F1E023C3F8BE
:100A8000002100BF70472DE9F05F80460D461646F5
:100A9000002701F003FA074639462A46334601F09B
:100AA0000700C0F1070ABAF1040F02D94FF0040A97
:100AB00001E0C0F1070AD14600F1040ABAF1070FBC
:100AC00002D24FF0000A01E0A0F1030AD4464FF031
:100AD000010A0AFA09FAAAF1010A0AEA020A0AFA5A
:100AE0000CFA4FF0010B0BFA0CFBABF1010B0BEA0C
:100AF000030B4AEA0B042146404601F0D7F9BDE852
:100B0000F09F000000BF00F00702064B19684FF687
:100B1000FF031940044B0B4343EA0221014B1960C8
:100B200000BF70470CED00E00000FA0570B5044608
:100B30000D460CB9012070BD5A48006800F007004E
:100B4000A8420ED25748006820F0070028435549B4
:100B500008600846006800F00700A84201D00120A4
:100B6000E9E7207800F0020002281DD1207800F08B
:100B70000400042805D14C48406840F4E0604A492C
:100B80004860207800F00800082805D146484068F1
:100B900040F46050444948604348406820F0F00009
:100BA000A168084340494860207800F0010078B30C
:100BB0006068012806D13C48006800F4003090B914
:100BC0000120B8E76068022806D13748006800F0C5
:100BD000007040B90120AEE73348006800F0020021
:100BE00008B90120A7E73048406820F00300616899
:100BF00008432D494860FFF7E9FE064609E0FFF784
:100C0000E5FE801B41F28831884202D9032092E739
:100C100007E02548406800F00C006168B0EB810FE8
:100C2000EDD12048006800F00700A8420ED91D4809
:100C3000006820F0070028431A4908600846006849
:100C400000F00700A84201D0012074E7207800F0EE
:100C50000400042807D11448406820F4E060E168EB
:100C6000084311494860207800F00800082808D19E
:100C70000D48406820F46050216940EAC1000A49EB
:100C8000486000F03FF808494968C1F30311074A7A
:100C9000515CC8400649086006480068FFF7BCFE82
:100CA000002048E7002002400010024020200008F9
:100CB0000000002008000020014800687047000084
:100CC0000000002000B5FFF7F7FF04494968C1F3B1
:100CD0000221034A515CC84000BD000000100240E0
:100CE0003020000800B5FFF7E7FF04494968C1F369
:100CF000C221034A515CC84000BD00000010024000
:100D000030200008F0B585B00FF26C0C9CE8E010C4
:100D100001A8A0E8E0101CA52D6800950021002284
:100D2000002300240020194D696801F00C05F5B17D
:100D3000042D02D0082D19D101E0154819E001ADAC
:100D4000C1F38346AC5D01F4803555B10F4D6D683C
:100D5000C5F340451DF805200D4D6543B5FBF2F385
:100D600002E00C4D04FB05F3184602E000BF084802
:100D700000BF00BF05B0F0BD020304050607080967
:100D80000A0B0C0D0E0F10100102000000100240A3
:100D900000127A0000093D00F8B504460CB90120A4
:100DA000F8BD207800F00100002878D0F8484068AD
:100DB00000F00C0004280CD0F548406800F00C004E
:100DC000082811D1F248406800F48030B0F5803F27
:100DD0000AD1EF48006800F4003000285FD0606856
:100DE00000285CD10120DBE700BF6068B0F5803FE0
:100DF00006D1E748006840F48030E549086028E003
:100E0000606858B9E248006820F48030E049086022
:100E10000846006820F4802008601AE06068B0F599
:100E2000A02F0BD1DA48006840F48020D849086030
:100E30000846006840F4803008600AE0D448006842
:100E400020F48030D24908600846006820F48020F1
:100E5000086000BF606888B1FFF7B8FD054606E08E
:100E6000FFF7B4FD401B642801D9032098E7C84868
:100E7000006800F400300028F2D010E0FFF7A6FD73
:100E8000054606E0FFF7A2FD401B642801D90320B8
:100E900086E7BF48006800F400300028F2D12078CF
:100EA00000F00200022857D1B948406800F00C0059
:100EB00050B1B748406800F00C00082818D1B44879
:100EC000406800F4803098B9B148006800F0020032
:100ED00020B12069012801D0012061E7AC480068F9
:100EE00020F0F800616940EAC100A949086033E0D8
:100EF0002069E8B10120A7490860FFF767FD0546B2
:100F000006E0FFF763FD401B022801D9032047E7F5
:100F10009F48006800F002000028F2D09C4800685A
:100F200020F0F800616940EAC1009949086013E0C7
:100F3000002098490860FFF749FD054606E0FFF7E5
:100F400045FD401B022801D9032029E7904800688D
:100F500000F002000028F2D1207800F008000828F4
:100F60002DD1A069B8B101208B490860FFF72EFD93
:100F7000054606E0FFF72AFD401B022801D90320A1
:100F80000EE78348406A00F002000028F2D00120FA
:100F900000F0AAFC13E000207F490860FFF716FD6F
:100FA000054606E0FFF712FD401B022801D9032089
:100FB000F6E67748406A00F002000028F2D1207877
:100FC00000F00400042873D100277148C06900F0C4
:100FD000805070B900BF6E48C06940F080506C49C5
:100FE000C8610846C06900F08050009000BF00BF93
:100FF00001276A48006800F48070B0B9674800684B
:1010000040F4807065490860FFF7E0FC054606E0A3
:10101000FFF7DCFC401B642801D90320C0E65F48D1
:10102000006800F480700028F2D000BFE06801285A
:1010300006D15748006A40F001005549086227E090
:10104000E06858B95248006A20F00100504908622F
:101050000846006A20F00400086219E0E0680528EC
:101060000BD14B48006A40F0040049490862084629
:10107000006A40F0010008620AE04548006A20F07A
:101080000100434908620846006A20F00400086233
:1010900000BFE068A0B1FFF799FC054609E0FFF743
:1010A00095FC401B41F28831884202D9032077E643
:1010B00022E03748006A00F002000028EFD012E07A
:1010C000FFF784FC054608E0FFF780FC401B41F277
:1010D0008831884201D9032062E62D48006A00F079
:1010E00002000028F0D1012F05D12948C06920F065
:1010F00080502749C86100BFE069C8B324484068F0
:1011000000F00C00082860D0E069022848D10020D7
:1011100020490866FFF75AFC054606E0FFF756FC33
:10112000401B022801D903203AE61948006800F064
:1011300000700028F2D1206AB0F5803F07D1144832
:10114000406820F40030A168084311494860D4E9A0
:10115000080108430E49496821F4741108430C49F9
:10116000486001200B490866FFF730FC054607E0A0
:101170003DE0FFF72BFC401B022801D903200FE6BE
:101180000348006800F000700028F2D02FE0000053
:1011900000100240000042428004424200700040C1
:1011A000002014490866FFF711FC054606E0FFF72A
:1011B0000DFC401B022801D90320F1E50E48006810
:1011C00000F000700028F2D111E0E069012800D1A0
:1011D000E6E50948466806F48031206A814204D178
:1011E00006F47011606A814201D00120D8E5002028
:1011F000D6E500000000424200100240042808D159
:101200004FF0E021096941F004014FF0E022116143
:1012100007E04FF0E021096921F004014FF0E022DE
:101220001161704770B504462546681EB0F1807F95
:1012300001D301200FE0681E4FF0E02148610F212B
:101240004FF0FF3000F032FE00204FF0E0218861C7
:1012500007200861002070BD70470146002200236E
:1012600091F8392091F83A3042EA030070470000C3
:101270002DE9F0470446206805682068C6682068A4
:1012800047694FF00008C14605F00F08B8F1000F9C
:101290000AD105F0200038B106F0200020B1204628
:1012A00000F082FCBDE8F087B8F1000F6DD007F0C8
:1012B000010018B906F49070002866D005F001000E
:1012C00030B106F4807018B1E06B40F00100E063CB
:1012D00005F0040030B107F0010018B1E06B40F0F8
:1012E0000200E06305F0020030B107F0010018B120
:1012F000E06B40F00400E06305F0080030B107F057
:10130000010018B1E06B40F00800E063E06B68B3E7
:1013100005F0200028B106F0200010B1204600F0B2
:1013200043FC20684069C0F38019E06B00F00800BE
:1013300010B9B9F1000F22D0204600F015FC20684A
:10134000406900F04000B0B12068406920F04000E2
:1013500021684861606B50B11748616B4863606BEE
:10136000FFF7B2F810B1606B416B88470CE0204684
:10137000FFF772FF08E02046FFF76EFF04E020460B
:10138000FFF76AFF0020E0638CE705F0800030B1D2
:1013900006F0800018B1204600F02AFD82E705F033
:1013A000400030B106F0400018B1204600F0ECFBE0
:1013B00078E700BF76E70000551B000810B504462B
:1013C0000CB9012010BDA06900B100E000BF94F885
:1013D000390028B9002084F83800204600F028F8A9
:1013E000242084F839002068C06820F40050216867
:1013F000C860204600F02CFC2068006920F4904072
:10140000216808612068406920F02A00216848614D
:101410002068C06840F400502168C8600020E06384
:10142000202084F8390084F83A000020CAE7000040
:1014300010B586B0044625492068884244D100BFD3
:101440002348806940F0040021498861084680698A
:1014500000F00400019000BF00BF00BF0846806993
:1014600040F4804088610846806900F48040019023
:1014700000BF00BF00BF0846806940F001008861DE
:101480000846806900F00100019000BF00BF4815C8
:10149000029002200390012004900320059002A9ED
:1014A0000C48FFF7E5F84FF48060029000200390AD
:1014B00002A90848FFF7DCF82520FFF7D4FA032239
:1014C00011462520FFF7DFFA06B010BD00380140B5
:1014D000001002400008014010B5034693F83A009E
:1014E00020282FD101B10AB9012010BD00BF93F807
:1014F0003800012801D10220F7E7012083F83800E5
:1015000000BF99629A85DA850020D863222083F88B
:101510003A0000BF002083F8380000BF1868C06898
:1015200040F480701C68E0601868406940F0010079
:101530001C6860611868C06840F020001C68E060AA
:101540000020D2E70220D0E71D4A0168914236D13F
:101550001C49098801F4004189BB1A49098801F432
:10156000804171B1184909780A2903D00021154A30
:10157000118024E01349098841F40041114A118087
:101580001DE0114909780D2906D10E49098841F459
:1015900080410C4A118012E00B490978094A1288EF
:1015A000C2F30D02094B995406490988491C054AA2
:1015B000118011460988C72901DD0021118070477B
:1015C00000380140180000201A0000202C000020E4
:1015D000704700BFFEE7000010B510210348FFF779
:1015E000E7F908B9012010BD0020FCE70018014010
:1015F00010B508210348FFF7DBF908B9012010BD39
:101600000020FCE70018014010B504210348FFF753
:10161000CFF908B9012010BD0020FCE700180140F7
:1016200070B5054605EB4500304901EB80042068A4
:10163000804700283ED02079052802DA0520207155
:1016400052E020790A2803DA2079401C20714BE00F
:10165000E07908B90120E07105EB4501491CC8B2E9
:1016600000F09CF8A07900283EDD6079A1798842DD
:101670000DDA6079401CC0B26071A179884233D123
:1016800005EB4501C91CC8B200F088F82CE0207AAF
:10169000002829DD607A401CC0B26072217A88423D
:1016A00022DB0020607205EB4501491CC8B200F046
:1016B00075F819E02079052802DB0520207110E07B
:1016C000207918B12079401E20710AE0E0790128C4
:1016D00007D10020E07105EB4501891CC8B200F07C
:1016E0005DF800202071607170BD00007001002065
:1016F0000C4800780B4A5278904201D10020704784
:10170000084802780078401C064B1870981C815CD1
:10171000801E00780A2802DB00201A461070084656
:10172000EDE700006401002000200021164A11703E
:10173000517000BF1EE0642100EB4002134B03EB2D
:1017400082029171022100EB400203EB82021171CF
:10175000002100EB400203EB8202D17100EB40025A
:1017600003EB8202517200EB400203EB8202117222
:10177000411CC8B20328DEDB0549044A1160054953
:10178000D16005499161704764010020700100201B
:10179000D9150008F11500080916000807494A780C
:1017A0004978491C054B5970991C8854891E497801
:1017B0000A2902DB00211A4651707047640100209B
:1017C00000B585B000BF1A48806940F00400184990
:1017D00088610846806900F00400009000BF00BFE7
:1017E00000BF0846806940F0400088610846806973
:1017F00000F04000009000BF00BF012001900020D9
:101800000290022003900320049001A90948FEF7EA
:101810002FFF1C2001900020029001200390032044
:10182000049001A90448FEF723FF05B000BD0000A5
:1018300000100240000801400018014010B5FFF7F9
:10184000BFFFFFF771FF10BD10B5002404E0204674
:10185000FFF7E6FE601CC4B2032CF8DB10BD0000ED
:1018600000B585B000BF1B48806940F008001949E9
:1018700088610846806900F00800009000BF00BF42
:1018800000BF0846806940F04000886108468069D2
:1018900000F04000009000BF00BF20200190012018
:1018A000029003900320049001A90B48FEF7E0FE8C
:1018B0002020019001A90948FEF7DAFE012220212B
:1018C0000548FFF77DF8012220210448FFF778F84A
:1018D00005B000BD00100240000C0140001801409E
:1018E00000BFFEE77047704708B508490968C90896
:1018F0004FF47A72B1FBF2F14143009100BF00BF97
:1019000000994A1E00920029F9D108BD000000206C
:1019100070470000014601EB4102084B03EB8200D7
:10192000426852B14268521E426032B9012242708E
:101930000278012A01D18268426070473401002098
:1019400070B5002016E0002100EB40021E4B03EBB7
:101950008202516000EB400203EB8202916000EBD7
:10196000400203EB8202517000EB400203F82210A8
:10197000411CC8B20428E6DB144909684FF47A73A5
:10198000B1FBF3F2511EB1F1807F00D31BE0511E79
:101990004FF0E023596159170F23002904DB1C077E
:1019A000250E0B4C655406E01C07260E094C01F071
:1019B0000F052D1F665500BF00214FF0E0239961F0
:1019C0000721196100BF70BD340100200000002014
:1019D00000E400E018ED00E070B504460D46042C6C
:1019E00001DB00BFFEE7012000F074FA04EB4400C5
:1019F0000C4901EB8000456004EB440001EB8000E2
:101A00008560002004EB4401064A02EB8101487026
:101A1000012004EB440102F82100002000F05AFAF2
:101A200070BD00003401002030B58FB005460024A1
:101A300001200590000406900020079002200C90E1
:101A4000C1030D910E9505A8FFF7A6F904460CB148
:101A500000BFFEE70F2000900220019000200290BE
:101A60004FF4806003900020049002216846FFF745
:101A70005DF804460CB100BFFEE70FB030BD10B5F5
:101A8000FEF7AAFF00F002F810BD000010B51748DD
:101A9000006840B115480068401E1449086010B93C
:101AA000012013490870002404E02046FFF732FFAC
:101AB000601CC4B2042CF8DB0E480068401C0D49C1
:101AC0000860084600686FF00041884202D100209B
:101AD0000849086008480078401CC0B206490870F0
:101AE0000A2801DB0020087010BD00001C00002047
:101AF0002000002024000020280000201148006859
:101B000040F001000F490860084640680E4908404F
:101B10000C494860084600680C49084009490860BB
:101B20000846006820F4802008600846406820F4D9
:101B3000FE0048604FF41F008860C8030449086035
:101B400070470000001002400000FFF8FFFFF6FEA3
:101B500008ED00E070B505466C6A0020E085E08481
:101B60002046FFF779FB70BD0168C96821F49071C8
:101B70000268D1600168496921F001010268516180
:101B8000202180F83A10704710B504462068C068DC
:101B900020F040002168C860202084F839002046E9
:101BA000FFF716FD002010BD70B5044694F83A000A
:101BB00022284AD1A068B0F5805F13D1A56A2069B8
:101BC00040B920684068C0F308002880A06A801CE3
:101BD000A06219E020684068C0B22880A06A401C5A
:101BE000A06211E0206938B920684068C1B2A26AD9
:101BF000501CA062117007E02068406800F07F016F
:101C0000A26A501CA0621170E08D401E80B2E08577
:101C1000C8B92068C06820F020002168C86020682A
:101C2000C06820F480702168C8602068406920F096
:101C3000010021684861202084F83A002046FFF71F
:101C400083FC002070BD0020FCE70220FAE70000C2
:101C500070B504462168096921F44051E2681143D6
:101C6000226811612269A1681143626941EA020593
:101C70002168C96841F20C62914329432268D1600E
:101C80002168496921F44071A269114322685161B8
:101C9000564A2168914254D1FFF724F800EBC00165
:101CA00001EB001162689200B1FBF2F100EBC0029F
:101CB00002EB001263689B00B2FBF3F26423B2FBF9
:101CC000F3F202EBC20303EB0212A1EB8201322218
:101CD00002EB01116422B1FBF2F101F0F00100EB23
:101CE000C00202EB001263689B00B2FBF3F26423B4
:101CF000B2FBF3F201EB021200EBC00101EB0011A9
:101D000063689B00B1FBF3F100EBC00303EB00132E
:101D10006668B600B3FBF6F36426B3FBF6F303EB99
:101D2000C30606EB0313A1EB8301322303EB01117E
:101D30006423B1FBF3F101F00F01114422689160BB
:101D400053E0FEF7BFFF00EBC00101EB001162683A
:101D50009200B1FBF2F100EBC00202EB00126368EB
:101D60009B00B2FBF3F26423B2FBF3F202EBC2037B
:101D700003EB0212A1EB8201322202EB0111642279
:101D8000B1FBF2F101F0F00100EBC00202EB001236
:101D900063689B00B2FBF3F26423B2FBF3F201EB46
:101DA000021200EBC00101EB001163689B00B1FB64
:101DB000F3F100EBC00303EB00136668B600B3FB5E
:101DC000F6F36426B3FBF6F303EBC30606EB03134B
:101DD000A1EB8301322303EB01116423B1FBF3F187
:101DE00001F00F0111442268916070BD003801407C
:101DF000014691F8390021282CD18868B0F5805F20
:101E00000FD10A6A1088C0F308000B68586008698F
:101E100018B9086A801C086209E0086A401C086258
:101E200005E00B6A581C086218780B685860C88C6B
:101E3000401E80B2C88458B90868C06820F080008D
:101E40000B68D8600868C06840F040000B68D86034
:101E5000002070470220FCE710B500240C48FFF773
:101E600007FA00BF01E0641C00BF0948FFF7F5F95D
:101E70002028F8D100BF002401E0641C00BF01222B
:101E800004490348FFF728FB0028F6D100BF10BD26
:101E9000F40000201A00002000BFFEE7024800689E
:101EA000C0F30220704700000CED00E010B50028E0
:101EB00004DB0A07130E054A135406E00A07140E42
:101EC000034A00F00F031B1FD45410BD00E400E0D0
:101ED00018ED00E080F31088704700BF70470000E5
:101EE00010B504460420FFF789F90148046010BDCD
:101EF0001000002000BF054A126802F04002002ACC
:101F0000F9D0C2B2014B1B1D1A6070470038014066
:101F10000024FEF76DFD4FF4E010FFF785FD48202B
:101F2000FFF7DEFFFFF70CFDFFF79AFC4FF4E130FF
:101F300000F05AF8FFF782FC15A0FEF76DF90A21B0
:101F40000320FFF749FD22E00020FEF7A1FA10B1BF
:101F500012A0FEF761F90120FEF79AFA10B114A061
:101F6000FEF75AF90220FEF793FA10B115A0FEF71A
:101F700053F90320FEF78CFA08B1FFF765FCFFF771
:101F8000B7FB04461CB1214613A0FEF745F9DBE779
:101F90007379732072756E0D0A00000074696D65A7
:101FA00072203020617272697665640D0A0000004B
:101FB00074696D6572203120617272697665640D95
:101FC0000A00000074696D657220322061727269C6
:101FD0007665640D0A0000004B6579436F64653DCA
:101FE00025750D0A0000000010B5044609480A498D
:101FF00008600846446000218160C1600161816120
:102000000C214161FFF7DAF9012204490248FFF788
:1020100063FA10BD00380140F40000201A000020CF
:102020000000000000000000010203040607080988
:1020300000000000010203045820000800000020F6
:102040002C0000006C010008842000082C000020F7
:10205000CC070000880100080024F4000000000004
:10206000100000000100000000000000000000005F
:102070000000000000000000000000000000000060
:04208000000000005C
:0400000508000131BD
:00000001FF
