:020000040800F2
:10000000009D002045010008B12A0008A122000837
:10001000AD2A00080F1100086D2E00080000000036
:10002000000000000000000000000000DD2A0008C1
:100030003F11000800000000B32A0008352B00081B
:100040005F0100085F0100085F0100085F01000810
:100050005F0100085F0100085F0100085F01000800
:100060005F0100085F0100085F0100085F010008F0
:100070005F0100085F0100085F0100085F010008E0
:100080005F0100085F0100085F0100085F010008D0
:100090005F0100085F0100085F0100085F010008C0
:1000A0005F0100085F0100085F0100085F010008B0
:1000B0005F0100085F0100085F0100085F010008A0
:1000C0005F0100085F0100085F0100085F01000890
:1000D0005F0100080D2E00085F0100085F010008A5
:1000E0005F0100085F0100085F0100085F01000870
:1000F0005F0100085F0100085F0100085F01000860
:100100005F0100085F0100085F0100085F0100084F
:100110005F0100085F0100085F0100085F0100083F
:100120005F0100085F0100085F0100085F0100082F
:10013000DFF80CD000F0D2FD004800471DF60008A3
:10014000009D00200648804706480047FEE7FEE77E
:10015000FEE7FEE7FEE7FEE7FEE7FEE7FEE7FEE777
:100160003D2B0008310100082DE9F05F0546002015
:1001700092469B4688460646814640241BE0284618
:1001800041464746224600F060F853465A46C01A98
:10019000914110D311461846224600F047F82D1A17
:1001A00067EB01084F4622460120002100F03EF88F
:1001B00017EB00094E41201EA4F10104DFDC484684
:1001C00031462A464346BDE8F09F2DE9F041002420
:1001D000061B254671F1000605DA01240027D0EB45
:1001E000070067EB0101161E73F1000605DA002710
:1001F000D2EB0702012567EB0303FFF7B5FF864645
:100200000E4617469C46AC4204D00025D0EB050EA6
:1002100065EB010624B10020D2EB000760EB030C74
:10022000704631463A466346BDE8F081202A04DB39
:10023000203A00FA02F1002070479140C2F12003F9
:1002400020FA03F3194390407047202A04DB203A38
:1002500021FA02F00021704721FA02F3D040C2F1E6
:10026000200291400843194670470000004870473B
:100270008438010810B50446FFF7F8FF0068005DF8
:1002800000F0010010BDA0F16101192900D820384B
:1002900070470000004870479038010840EA0103A9
:1002A0009B0703D009E008C9121F08C0042AFAD22C
:1002B00003E011F8013B00F8013B521EF9D27047F0
:1002C000D2B201E000F8012B491EFBD27047002298
:1002D000F6E710B513460A4604461946FFF7F0FF45
:1002E000204610BDCAB2401E10F8011F8A4202D03B
:1002F0000029F9D100207047421C10F8011B002989
:10030000FBD1801A704710B5002200E0521C835CBC
:100310008C5CA34201D1002BF8D1D8B2E1B2401AD3
:1003200010BD30B504460020034600E05B1C93423C
:1003300003D2E05CCD5C401BF8D030BDFFF7E3BFDB
:10034000034611F8012B00F8012B002AF9D11846B9
:10035000704730B505460020034600E05B1C934221
:1003600005D2EC5CC85C201A01D1002CF6D130BD5E
:1003700030B503461D783DB10A4612F8014B1CB159
:10038000AC42FAD15B1CF5E7181A30BD10B508E095
:100390000A4602E0A34208D0521C1378002BF9D180
:1003A000401C0478002CF3D1002010BD07280FD288
:1003B000DFE800F00406080E0E0C0A0005A07047E6
:1003C0000AA0704713A070471DA0704722A0704775
:1003D0002BA070474E6F206572726F722028657275
:1003E000726E6F203D2030290000000045444F4DC3
:1003F000202D2066756E6374696F6E20617267755B
:100400006D656E74206F7574206F662072616E6703
:10041000650000004552414E4745202D2066756E0F
:100420006374696F6E20726573756C74206E6F747F
:1004300020726570726573656E7461626C65000030
:10044000454E4F4D454D202D206F7574206F662011
:100450006D656D6F7279000045494E56414C202DF7
:1004600020696E76616C696420617267756D656E76
:100470007420746F2066756E6374696F6E0000007F
:10048000556E6B6E6F776E206572726F7200000032
:100490002DE9FE4F804681EA0300C00F0C46009014
:1004A00021F0004123F00045B8EB0200A94105D23C
:1004B0004046214690461C460B46024623F000402B
:1004C000104347D0270DC7F30A00C3F30A51029027
:1004D000401A019040286BDAC3F3130040F4801BEC
:1004E0000098924620B10023D2EB030A63EB0B0B7A
:1004F00001985946C0F140025046FFF797FE064664
:100500000D4650465946019A00F02FFA10EB0800AC
:100510006141002487EA115284EAE7731A4340D00C
:10052000009A62B3019A012A4FEA075215DC001BB8
:1005300061EB02014FF0004202EA0752CDE90042AE
:10054000001C41F5801132462B4600F0B5FA03B08D
:10055000BDE8F08F40462146F9E7001B61EB020140
:10056000001C41F5801300185B412018A2F500170C
:1005700047EB030140EAD570B6196D4111E06D08F3
:100580004FEA360645EAC0754FEA0752001B61EB99
:100590000201001C41F5801149084FEA30000019A2
:1005A000514132462B4603B0BDE8F04F00F075BA1A
:1005B0000098012240000023D0EB020263EBE073BD
:1005C000009821464FEAE074B8EB000061EB0401AB
:1005D000E9E783F000435BE781F0004158E72DE94C
:1005E000FE4F81EA030404F0004421F0004100942E
:1005F0004FF0000B23F0004350EA01045ED052EAB2
:1006000003045BD0C3F30A54C1F30A552C44A4F28B
:10061000F3340194A0FB0254C1F3130141F480119F
:10062000C3F3130343F4801301FB024400FB034EA6
:10063000840A970A44EA815447EA8357A4FB07686F
:1006400002958D0A05FB07854FEA932C04FB0C5499
:100650002705029D4FEA065847EA1637B5EB08050D
:100660006EEB070C870E920E47EA811742EA83125F
:10067000A7FB0201B6EB0B0164EB00042B0D43EA70
:100680000C335E1844EB1C50DA465146E7FB02017E
:10069000C5F313044FEA0B3343EA14534FEA043211
:1006A000019C43EA0603A4F10C040294009CCDE9EA
:1006B00000B400F001FA03B0BDE8F08F002001465D
:1006C000F9E72DE9F04D81EA030404F0004B21F035
:1006D000004514464FF0000A23F0004150EA05029D
:1006E00020D054EA01021DD0C5F30A570246C5F3D3
:1006F0001303C1F31300C1F30A5640F4801543F409
:100700008013A7EB0608101BD64608F2FD3873EBE2
:10071000050002D308F1010801E092185B41B8F12D
:10072000000F03DA00200146BDE8F08D00204FF4F1
:100730008011064684460EE0171B73EB050705D3B0
:10074000121B63EB050306434CEA010C49084FEA10
:10075000300092185B4150EA0107EDD152EA0300E4
:1007600012D082EA040083EA0501084305D0101B79
:10077000AB4106D20122002306E000224FF00043E5
:1007800002E06FF0010253101AEB06004CEB085127
:1007900010EB0A0041EB0B01BDE8F04D00F07DB914
:1007A0000EB5C10F80EAE0700844CA07002140F28C
:1007B00033438DE80E000A460B4600F07DF903B086
:1007C00000BD3EB5CA17CB0F002450405140C018A1
:1007D0006141DA0740F233430094CDE90123224618
:1007E000234600F069F903B030BDC1F30A5210B5D9
:1007F000C1F3130140F2FF3341F480119A4201DA50
:10080000002010BD40F233439A42A2F2334203DC8F
:100810005242FFF71AFD10BD904010BD70B5C1F3F4
:100820000A5201F000450024C1F3130140F2FF33E6
:1008300041F480119A4202DA0020014670BD40F274
:1008400033439A42A2F2334203DC5242FFF7FDFCEB
:1008500001E0FFF7EBFC2C43F0D00023D0EB0300CA
:1008600063EB010170BD000030B5041E71F100049E
:1008700004DB4FF00044404264EB0101141E73F1AD
:10088000000405DB1C464FF00043524263EB0403B7
:100890008B4208BF824230BD30B5041E71F10004A6
:1008A00004DB4FF00044404264EB0101141E73F17D
:1008B000000405DB1C464FF00043524263EB040387
:1008C000994208BF904230BD01F0004330B421F09E
:1008D000004150EA010206D00A0DA2F56072C1F390
:1008E0001301002A02DC30BC00207047440F44EAA8
:1008F000C104C100E01830BC00EBC25000F096B853
:10090000A0E8004FF0C040F804DB01B5AFF3008071
:10091000BDE8024001C10020704700F12C080C46E0
:1009200058F8040DAFF3008058F8040D85462000F8
:1009300008BF012038E9F00018E9004F704730B5D2
:100940000B46014600202022012409E021FA02F58D
:100950009D4205D303FA02F5491B04FA02F5284427
:10096000151EA2F10102F1DC30BD202A06DBCB17F7
:10097000203A41FA02F043EAE07306E041FA02F35A
:10098000D040C2F120029140084319467047000050
:100990000FB4002300B589B00CA900910B996FF03A
:1009A0000042CB601E4B06931E4B07930423CDE9F8
:1009B00001321D4A089202466B46002000F034FACC
:1009C00009B05DF814FB70B586B006464FF0FF30F5
:1009D0000091CDE90101002015460C4604903246F5
:1009E000694604A8FFF7D4FF02460498211825B1F0
:1009F00008B1084600E020462860049800280DD081
:100A0000002A02DD0098884208D0081B0094CDE936
:100A100001043246694604A8FFF7BAFF06B070BD6C
:100A2000611000087F100008750200080029A8BFA7
:100A30007047401C490008BF20F00100704710B407
:100A4000B0FA80FC00FA0CF050EA010404BF10BCBC
:100A5000704749B1CCF1200421FA04F411FA0CF1E9
:100A600018BF012121430843A3EB0C01CB1D4FEA22
:100A700000614FEA102042BF002010BC704700EB1D
:100A8000C35010440029A4BF10BC7047401C49004B
:100A900008BF20F0010010BC704710B5141E73F1A0
:100AA000000408DA401C41F1000192185B411A432E
:100AB00001D120F0010010BD2DE9F04D92469B467A
:100AC00011B1B1FA81F202E0B0FA80F22032904620
:100AD000FFF7ACFB04460F4640EA0A0041EA0B016F
:100AE00053465A46084313D0114653EA010019D021
:100AF000C8F140025046FFF7A8FB05460E46504697
:100B000059464246FFF792FB084305D0012004E016
:100B100020463946BDE8F08D0020054346EAE076E0
:100B20002C4337430A986305E40AA0EB080000222F
:100B3000FD0A44EA47540A3002D500200146E9E79D
:100B4000010510196941DDE9084500196941BDE851
:100B5000F04DA2E770B521F0004303430CD0C1F380
:100B60000A550024D5EB040564EB0403D617AD1A2F
:100B7000B34102DB0020014670BD201841EB025159
:100B800070BD2DE9F04D00231A461B1A8A4103DB84
:100B900000200146BDE8F08DC1F30A52C1F31301F4
:100BA00041F480154FF0000BD10702D100186D41C0
:100BB000521E0027044640F2FF11384601EB620A3C
:100BC0003E468046024600204FF48011FFF73DFB71
:100BD000C2197141BB1846EB0100B4EB030C75EB75
:100BE000000C04D3E41A65EB000517460E462419E1
:100BF00008F101006D4180463428E3DDF91946EB28
:100C00000600091BA84103D24FF0FF32134601E052
:100C1000002213461BEB070046EB0A51BDE8F04DDE
:100C2000FFF73BBF2DE9FE4FC3F30A5701F0004524
:100C30000024C1F30A56C3F31303C1F3130143F4B1
:100C4000801312EB020AA64641F48011009543EB93
:100C5000030CA7F1010B16E0B0EB0A0061EB0C01ED
:100C6000071E71F1000707DA4FF00008D0EB08000B
:100C700085F0004568EB0101171A73EB0107EBD310
:100C8000761E001849415E45F6DA50EA010209D0A5
:100C9000CDE900E5002213460296FFF70DFF03B0F1
:100CA000BDE8F08F20460099F9E7C1F30A52C1F37D
:100CB000130140F2FF3341F480119A4202DA00201E
:100CC0000146704740F233439A42A2F2334202DCBB
:100CD0005242FFF7BABAFFF7A9BA0000064C074D17
:100CE00006E0E06840F0010394E8070098471034FC
:100CF000AC42F6D3FFF720FA6C3D01088C3D0108A9
:100D00002DE9FF4F087883B09946FF2805D0491C8C
:100D10002D2804D00024002008E000200BE001244E
:100D2000F9E700EB800003EB4000491C0B78FF2B38
:100D3000F7D104B1404200230293147819461D46AE
:100D40002D2C01D02B2C04D1521C2D2C13D000247F
:100D50000294AA461478FF2C0FD00A25A3FB05782D
:100D600001FB05814FF0000C03FB0C11521CE31931
:100D70004AEB0101EEE70124EAE7814453EA01006E
:100D800002D019F5C87F06DA03980021C0E90011E6
:100D900007B0BDE8F08F0025AE4E2F46DFF8B882D1
:100DA000184600F07DF9CDE90001B9F1000002DA42
:100DB000C9F1000400E004460023A74A1AEB030B24
:100DC00042EB045A12E0E00707D02A463346384681
:100DD0004146FFF704FC074688462A46334610463C
:100DE0001946FFF7FCFB05460E466410002CEAD1BD
:100DF000DDE90001B9F1000F5A46534606DAFFF764
:100E000060FC3A464346FFF75CFC05E0FFF7E7FB72
:100E10003A464346FFF7E3FB029A0AB181F00041EC
:100E2000039AC2E90001B3E72DE9FF4F1F468DB0D9
:100E3000D7E901464FF0FF382E2045464FF0000914
:100E40000B90B9696D1C0E988847396A82468847AD
:100E50000028F6D1BAF1FF3F0AD024F4D064002E66
:100E600011DDBAF12B0F08D0BAF12D0F0BD102E032
:100E7000404611B08DE744F48064B9696D1C0E984A
:100E800088478246761E6946600501D52D2000E020
:100E90002B208DF8000001F1010B0DF1200809E075
:100EA000B9696D1C0E98884782460F9844F4007407
:100EB000761E0560002E02DDBAF1300FF0D00B99DE
:100EC0008A453ED144F0800406E00F99681CA9F1E0
:100ED000010944F400740860B9696D1C761E0E980F
:100EE000884782463028F0D02BE00B998A4505D1FF
:100EF000200603D444F08004761E18E0504602F029
:100F0000C5F908B30DF11301761E44F400748B4546
:100F100008D2AAF130000BF8010B200607D5A9F181
:100F2000010003E0200602D409F101008146A0057A
:100F300002D50F99681C0860B9696D1C0E98884726
:100F40008246002ED1DC53E0002E51DDBAF1650F50
:100F500002D0BAF1450F4BD1A00549D5B9696D1C36
:100F600024F44074761E0E9888478246002E0CDDCD
:100F70002B2804D0BAF12D0F07D144F48074B9693D
:100F80006D1C0E9888478246761EE00501D52D21FE
:100F900000E02B2108F8011BCDF82C8021E00DF199
:100FA0002901761E44F4007488450CD2AAF1300061
:100FB00010F0FF0088F8000002D10B99884509D98C
:100FC00008F1010806E0E00501D5244801E042F2FD
:100FD0000F708146B9696D1C0E98884782460F983C
:100FE0000560002E04DD504602F050F90028D6D1ED
:100FF000F9690E988847FF208BF8000088F80000F8
:101000000020069007904B466A4608A906A8FFF7FD
:1010100077FEA00502D46FF001002AE714F0240F38
:101020000AD0E00714D1DDE906123868031D3B60E1
:101030000068C0E900120BE0DDE90601FFF744FC9F
:101040000146E00704D13868021D3A60006801607B
:1010500028460EE7000014400000F03FF1D8FFFFE3
:10106000426842B1016811F8013B23B1521EC0E948
:101070000012184670470121C160881E70474268FF
:101080005AB1C368016843B983688B4205D0491ED1
:10109000521CC0E90012002070474FF0FF3070472B
:1010A0000EB540F2334202920022CDE900221346EF
:1010B000FFF702FD03B000BD70B58C1810F8015B9E
:1010C00015F0070301D110F8013B2A1106D110F8E1
:1010D000012B03E010F8016B01F8016B5B1EF9D1E5
:1010E0002B0705D40023521E0DD401F8013BFAE76B
:1010F00010F8013BCB1A921C03E013F8015B01F8D6
:10110000015B521EF9D5A142D8D3002070BD00BFAB
:10111000FEE730B590F840500124AC40C56B6C60E0
:10112000046863604468102C04D10468A2600468F9
:10113000E16003E00468A1600468E26030BD7047CC
:101140002DE9F04F87B004468846256902AF28464E
:1011500011F0EEFD8146C7F8009099F8040040F0C8
:101160004000B860022202A920460AF0EFFA0646C3
:10117000002E59D0307A00F00F00062854D194F890
:1011800074A095F83F90002084F8740085F83F0023
:10119000E06896E80E1080E80E10E16801F110009A
:1011A00002A991E80E1080E80E10E0682030E0609F
:1011B0006069408C40F48070616948840020009030
:1011C000E0682038216A431A00221949204607F0B6
:1011D000B6FB07466069408C20F4807061694884E2
:1011E00084F874A085F83F90EFB1B8F1000F1AD0E1
:1011F000022F14D1E06810F8080C00F00F0004284A
:1012000004D1E06850F8100C103000E009A08346CB
:101210005A460BA1204609F0E8FE052700BF3946D3
:10122000204607F099FD00BF07B0BDE8F08F000031
:101230002B5300086E6F206D657373616765000046
:101240006572726F7220696E205F5F6763206D65E3
:1012500074616D6574686F6420282573290000002F
:1012600010B504460B4890F80204012810D1002064
:10127000084981F802040846B0F800242046FFF728
:101280000DF84FF480610348FFF721F8012010BDED
:101290000020FCE7780400200146002291F821009C
:1012A000022808D00420886300BF002081F82000B5
:1012B00000BF012070470868006820F00E000B682E
:1012C00018600868006820F001000B68186091F849
:1012D000403001209840CB6B5860012081F82100FC
:1012E00000BF002081F8200000BF1046E2E70000A8
:1012F0000146002209B9012070471E4B0868984238
:101300000BD21D4B0868C01A1423B0FBF3F0800009
:10131000086419480838C8630AE0164B0868C01A00
:101320001423B0FBF3F08000086412480838C86347
:10133000022081F821000868026843F6F0708243B9
:10134000D1E901031843CB6818430B6918434B6973
:1013500018438B691843CB6918430243086802603D
:1013600000208863012081F82100002081F82000FE
:1013700000BFC1E708040240080002402DE9F04127
:1013800004460D4616461F464FF0000800BF94F86D
:101390002000012802D10220BDE8F081012084F85C
:1013A000200000BF94F8210001282CD1022084F8ED
:1013B00021000020A0632068006820F0010021685F
:1013C00008603B46324629462046FFF7A2FEE06A07
:1013D00030B12068006840F00E00216808600BE022
:1013E0002068006820F00400216808602068006818
:1013F00040F00A00216808602068006840F00100A1
:101400002168086006E000BF002084F8200000BFCB
:101410004FF002084046BFE72DE9F8470246002397
:101420009C467BE14FF0010808FA03F4D1F80080F4
:1014300008EA0400A0427DD1DFF8F4A2D1F80480CC
:10144000A8EB0A09D0453AD014DCB8F1030F50D00C
:1014500009DCB8F1000F31D0B8F1010F1CD0B8F1A0
:10146000020F49D120E0B8F1110F18D0B8F1120FD6
:1014700042D11EE0B9F5881F25D006DCB9F5803FC2
:1014800020D0B9F5801F37D11AE0B9F5001F18D068
:10149000B9F5041F30D117E0D1F80CC02DE0D1F818
:1014A0000C8008F1040C28E0D1F80C8008F1080C3D
:1014B00023E0D1F80C8008F10C0C1EE000BF00BF47
:1014C00000BF00BF00BF00BFD1F80880B8F1000F17
:1014D00002D14FF0040C0BE0D1F80880B8F1010FF5
:1014E00003D14FF0080C146102E04FF0080C546176
:1014F00003E04FF0000C00E000BF00BFFF2801D860
:10150000904601E002F104084646FF2802D84FEA5F
:10151000830803E0A3F108084FEA88084746D6F895
:1015200000804FF00F0909FA07F928EA09080CFAB8
:1015300007F900E07AE048EA0908C6F80080D1F827
:10154000048008F08058B8F1805F6FD100BFDFF8E9
:10155000E481D8F8188048F00108DFF8D891C9F87C
:101560001880C846D8F8188008F00108CDF8008027
:1015700000BF00BF4FEAB9384FEA930958F8295025
:101580004FEA83784FEA18794FF00F0808FA09F804
:1015900025EA0805DFF8A081424502D14FF0000896
:1015A00024E0DFF89881424502D14FF001081DE0A8
:1015B000DFF88C81424502D14FF0020816E0DFF8D7
:1015C0008481424502D14FF003080FE0DFF87881B3
:1015D000424502D14FF0040808E0DFF8708142452F
:1015E00002D14FF0050801E04FF006084FEA837979
:1015F0004FEA197908FA09F848EA0505DFF8508139
:101600004FEA930948F82950D1F8048008F480384B
:10161000B8F5803F0BD1DFF83C81D8F8008048EA6C
:101620000008DFF83091C9F800800AE075E0DFF8C3
:101630002481D8F8008028EA0008DFF81891C9F85A
:101640000080D1F8048008F40038B8F5003F0ED1CE
:10165000DFF8008108F10408D8F8008048EA0008A3
:10166000DFF8F09009F10409C9F800800DE0DFF817
:10167000E48008F10408D8F8008028EA0008DFF8C0
:10168000D49009F10409C9F80080D1F8048008F465
:101690008018B8F5801F0ED1DFF8B88008F108086F
:1016A000D8F8008048EA0008DFF8A89009F1080996
:1016B000C9F800800DE0DFF89C8008F10808D8F830
:1016C000008028EA0008DFF88C9009F10809C9F8C1
:1016D0000080D1F8048008F40018B8F5001F0ED17E
:1016E000DFF8708008F10C08D8F8008048EA00089C
:1016F000DFF8609009F10C09C9F800800DE0DFF80F
:10170000548008F10C08D8F8008028EA0008DFF8B7
:10171000449009F10C09C9F800805B1CD1F80080E5
:1017200028FA03F8B8F1000F7FF47CAEBDE8F88723
:10173000000011100010024000080140000C0140A0
:10174000001001400014014000180140001C01403D
:1017500008000140000401400AB1016101E00B04EE
:1017600003617047014800687047000004000020D2
:101770000348006803490978084401490860704734
:10178000040000200C00002010B50848006840F05C
:10179000100006490860052000F080F80F2000F0D6
:1017A00007F800F02BF8002010BD000000200240D8
:1017B00070B504460E4800784FF47A71B1FBF0F032
:1017C0000C490968B1FBF0F5284600F0F7FB08B1B9
:1017D000012070BD102C07D200222146501E00F0BF
:1017E0001EF80548046001E00120F2E70020F0E760
:1017F0000C00002000000020080000207047014677
:101800000846002809DB00F01F0301229A40430923
:101810009B0003F1E023C3F8002100BF70472DE9CE
:10182000F05F80460D461646002701F06BFB074629
:1018300039462A46334601F00700C0F1070ABAF1DB
:10184000040F02D94FF0040A01E0C0F1070AD146A3
:1018500000F1040ABAF1070F02D24FF0000A01E0CA
:10186000A0F1030AD4464FF0010A0AFA09FAAAF1D4
:10187000010A0AEA020A0AFA0CFA4FF0010B0BFA03
:101880000CFBABF1010B0BEA030B4AEA0B042146FC
:10189000404601F03FFBBDE8F09F000000BF00F0B4
:1018A0000702064B19684FF6FF031940044B0B4320
:1018B00043EA0221014B196000BF70470CED00E0C4
:1018C0000000FA0570B504460D460CB9012070BD44
:1018D0005A48006800F00700A8420ED25748006836
:1018E00020F007002843554908600846006800F0CA
:1018F0000700A84201D00120E9E7207800F00200AB
:1019000002281DD1207800F00400042805D14C489D
:10191000406840F4E0604A494860207800F00800E0
:10192000082805D14648406840F460504449486062
:101930004348406820F0F000A168084340494860EF
:10194000207800F0010078B36068012806D13C4897
:10195000006800F4003090B90120B8E76068022800
:1019600006D13748006800F0007040B90120AEE7AA
:101970003348006800F0020008B90120A7E73048AA
:10198000406820F00300616808432D494860FFF774
:10199000E9FE064609E0FFF7E5FE801B41F28831CB
:1019A000884202D9032092E707E02548406800F00A
:1019B0000C006168B0EB810FEDD12048006800F0A9
:1019C0000700A8420ED91D48006820F007002843F0
:1019D0001A4908600846006800F00700A84201D0D4
:1019E000012074E7207800F00400042807D114488F
:1019F000406820F4E060E1680843114948602078BD
:101A000000F00800082808D10D48406820F4605014
:101A1000216940EAC1000A49486000F03FF80849DE
:101A20004968C1F30311074A515CC8400649086080
:101A300006480068FFF7BCFE002048E7002002408F
:101A400000100240A830010800000020080000201B
:101A500001480068704700000000002000B5FFF753
:101A6000F7FF04494968C1F30221034A515CC840A9
:101A700000BD000000100240B830010800B5FFF7BB
:101A8000E7FF04494968C1F3C221034A515CC840D9
:101A900000BD000000100240B8300108F0B585B06C
:101AA0000FF26C0C9CE8E01001A8A0E8E0101CA567
:101AB0002D68009500210022002300240020194DEC
:101AC000696801F00C05F5B1042D02D0082D19D17B
:101AD00001E0154819E001ADC1F38346AC5D01F4A6
:101AE000803555B10F4D6D68C5F340451DF8052093
:101AF0000D4D6543B5FBF2F302E00C4D04FB05F31D
:101B0000184602E000BF084800BF00BF05B0F0BDA6
:101B100002030405060708090A0B0C0D0E0F10102E
:101B2000010200000010024000127A0000093D008E
:101B3000F8B504460CB90120F8BD207800F001008A
:101B4000002878D0F848406800F00C0004280CD039
:101B5000F548406800F00C00082811D1F2484068B0
:101B600000F48030B0F5803F0AD1EF48006800F4FF
:101B7000003000285FD0606800285CD10120DBE7DE
:101B800000BF6068B0F5803F06D1E748006840F4C8
:101B90008030E549086028E0606858B9E24800688C
:101BA00020F48030E04908600846006820F4802076
:101BB00008601AE06068B0F5A02F0BD1DA48006821
:101BC00040F48020D84908600846006840F480301E
:101BD00008600AE0D448006820F48030D2490860E8
:101BE0000846006820F48020086000BF606888B163
:101BF000FFF7B8FD054606E0FFF7B4FD401B64287B
:101C000001D9032098E7C848006800F40030002894
:101C1000F2D010E0FFF7A6FD054606E0FFF7A2FDB3
:101C2000401B642801D9032086E7BF48006800F400
:101C300000300028F2D1207800F00200022857D1AD
:101C4000B948406800F00C0050B1B748406800F057
:101C50000C00082818D1B448406800F4803098B9C6
:101C6000B148006800F0020020B12069012801D0CD
:101C7000012061E7AC48006820F0F800616940EAA3
:101C8000C100A949086033E02069E8B10120A749F3
:101C90000860FFF767FD054606E0FFF763FD401BA0
:101CA000022801D9032047E79F48006800F002009E
:101CB0000028F2D09C48006820F0F800616940EAF2
:101CC000C1009949086013E0002098490860FFF7B7
:101CD00049FD054606E0FFF745FD401B022801D9F6
:101CE000032029E79048006800F002000028F2D1A4
:101CF000207800F0080008282DD1A069B8B1012093
:101D00008B490860FFF72EFD054606E0FFF72AFD28
:101D1000401B022801D903200EE78348406A00F0E7
:101D200002000028F2D0012000F0C4FE13E00020E1
:101D30007F490860FFF716FD054606E0FFF712FD34
:101D4000401B022801D90320F6E67748406A00F0DC
:101D500002000028F2D1207800F00400042873D19A
:101D600000277148C06900F0805070B900BF6E480C
:101D7000C06940F080506C49C8610846C06900F0F5
:101D80008050009000BF00BF01276A48006800F43F
:101D90008070B0B96748006840F480706549086099
:101DA000FFF7E0FC054606E0FFF7DCFC401B64287B
:101DB00001D90320C0E65F48006800F48070002865
:101DC000F2D000BFE068012806D15748006A40F011
:101DD00001005549086227E0E06858B95248006A96
:101DE00020F00100504908620846006A20F0040013
:101DF000086219E0E06805280BD14B48006A40F002
:101E00000400494908620846006A40F0010008627F
:101E10000AE04548006A20F001004349086208468C
:101E2000006A20F00400086200BFE068A0B1FFF77C
:101E300099FC054609E0FFF795FC401B41F288310B
:101E4000884202D9032077E622E03748006A00F092
:101E500002000028EFD012E0FFF784FC054608E0FE
:101E6000FFF780FC401B41F28831884201D90320F2
:101E700062E62D48006A00F002000028F0D1012F30
:101E800005D12948C06920F080502749C86100BFAA
:101E9000E069C8B32448406800F00C00082860D00E
:101EA000E069022848D1002020490866FFF75AFC63
:101EB000054606E0FFF756FC401B022801D9032027
:101EC0003AE61948006800F000700028F2D1206A54
:101ED000B0F5803F07D11448406820F40030A16875
:101EE000084311494860D4E9080108430E4949688C
:101EF00021F4741108430C49486001200B4908661D
:101F0000FFF730FC054607E03DE0FFF72BFC401BE8
:101F1000022801D903200FE60348006800F0007092
:101F20000028F2D02FE000000010024000004242E2
:101F30008004424200700040002014490866FFF708
:101F400011FC054606E0FFF70DFC401B022801D9F5
:101F50000320F1E50E48006800F000700028F2D17F
:101F600011E0E069012800D1E6E50948466806F479
:101F70008031206A814204D106F47011606A814286
:101F800001D00120D8E50020D6E500000000424243
:101F900000100240042808D14FF0E021096941F007
:101FA00004014FF0E022116107E04FF0E0210969E0
:101FB00021F004014FF0E0221161704770B5044632
:101FC0002546681EB0F1807F01D301200FE0681E16
:101FD0004FF0E02148610F214FF0FF3000F09AFFF1
:101FE00000204FF0E021886107200861002070BDCB
:101FF00070B50446002520684069C0F3C01594F808
:10200000390021280ED16DB12068406920F0800090
:1020100021684861206B10B1206BFFF73DF9204625
:1020200000F01AFE20684069C0F3801594F83A0069
:1020300022280ED16DB12068406920F0400021684F
:102040004861606B10B1606BFFF726F9204600F025
:10205000F3FD002070BD704710B504460CB9012097
:1020600010BDA06900B100E000BF94F8390028B9A4
:10207000002084F83800204600F028F8242084F856
:1020800039002068C06820F400502168C8602046EC
:1020900000F0ECFD2068006920F4904021680861A0
:1020A0002068406920F02A00216848612068C068E3
:1020B00040F400502168C8600020E063202084F8CC
:1020C000390084F83A000020CAE7000010B586B055
:1020D00004463B49206888426FD100BF3948806977
:1020E00040F00400374988610846806900F0040028
:1020F000019000BF00BF00BF0846806940F48040E7
:1021000088610846806900F48040019000BF00BFEC
:1021100000BF0846806940F0010088610846806978
:1021200000F00100019000BF00BF00BF08464069F9
:1021300040F0010048610846406900F0010001904C
:1021400000BF00BF481502900220039001200490B8
:102150000320059002A91C48FFF75EF94FF4806048
:1021600002900020039002A91748FFF755F917487D
:1021700017490860002048600021154881608021CF
:10218000C1600021016141618161C161FFF7B0F867
:1021900000BF0F486063446200BF00221146252043
:1021A000FFF73DFB2520FFF72AFB0A480068C068BF
:1021B00040F0100007490968C86006B010BD000073
:1021C0000038014000100240000801405800024061
:1021D000BC0C00207C0C002077B581B0044615466D
:1021E00094F83A00202850D1029800B115B9012086
:1021F00004B070BD00BF94F83800012801D102205E
:10220000F6E7012084F8380000BF0298A062A58597
:102210000020E063222084F83A001D48616B886248
:102220001C48616BC8621C48616B08630020616BCD
:10223000486302AE32682368191D2B46606BFFF7B6
:102240009DF800BF00200090206800680090206882
:102250004068009000BF00BF00BF002084F8380035
:1022600000BF2068C06840F480702168C8602068A2
:10227000406940F00100216848612068406940F0F1
:102280004000216848610020B2E70220B0E700006A
:10229000E52B00082B2C0008952B00087047704791
:1022A00000BFFEE710B50446224620210148FFF793
:1022B00053FA10BD000C014010B5044622462021FF
:1022C0000148FFF749FA10BD0018014000B585B07C
:1022D00000BF1B48806940F0080019498861084622
:1022E000806900F00800009000BF00BF00BF0846F2
:1022F000806940F0400088610846806900F0400035
:10230000009000BF00BF20200190012002900390A8
:102310000320049001A90B48FFF77EF820200190CC
:1023200001A90948FFF778F8012220210548FFF7A5
:1023300013FA012220210448FFF70EFA05B000BD70
:1023400000100240000C0140001801402DE9F04748
:1023500004460D4616461F461A48211E75EB00001E
:1023600004DB4FF400106142A8411DDA0022164B35
:1023700030463946FEF790FA02D80120BDE8F087D2
:102380000022124B30463946FEF786FA0AD830460C
:102390003946FEF743FA001BA94101DB0120EDE7B6
:1023A0000020EBE70020E9E720462946FEF709FA7E
:1023B000804632463B46FEF757FA01D80120DDE75A
:1023C0000020DBE70000E0FF0000E0430000E0C386
:1023D0002DE9F04781460C46D9F80800132816D19C
:1023E000D9E90056A068132809D1D4E90010491B87
:1023F000B04102DB0120BDE8F0870020FBE7D4E913
:1024000000733A4628463146FFF7A0FFF3E7D9E9C3
:102410000056A06803280BD1D4E900733A46284639
:102420003146FEF721FA01D80120E4E70020E2E777
:102430002A46334628463146FEF716FA01D00020D8
:10244000D9E72A463346D4E90071384600F006F849
:1024500008B90120CFE70020CDE700002DE9F047C3
:1024600004460D4616461F461B48211E75EB00000C
:1024700004DB4FF400106142A8411EDA0022174B22
:1024800030463946FEF708FA02D80120BDE8F08749
:102490000022134B30463946FEF7FEF90BD2304688
:1024A0003946FEF7BBF9201A75EB010001DA01206D
:1024B000ECE70020EAE70020E8E720462946FEF79F
:1024C00080F9804632463B46FEF7CEF901D2012024
:1024D000DCE70020DAE700000000E0FF0000E04356
:1024E0000000E0C32DE9F04781460C46D9F808000A
:1024F000132817D1D9E90056A06813280AD1D4E9C6
:102500000010691A76EB000002DA0120BDE8F087BE
:102510000020FBE7D4E900733A4628463146FFF72E
:102520009DFFF3E7D9E90056A06803280BD1D4E951
:1025300000733A4628463146FEF796F901D201204B
:10254000E4E70020E2E72A46334628463146FEF714
:102550008BF901D00020D9E72A463346D4E900712F
:102560003846FFF7F3FE08B90120CFE70020CDE79A
:1025700070B504460D4616463246294660680CF092
:1025800083F818B102A1204602F044FF70BD00009C
:102590007472756E636174656400000038B504463A
:1025A000012269462046FFF7E3FF9DF8000038BD91
:1025B00070B506460C46304600F038F90546681CF2
:1025C000B0F1804F03D3306808F06CFB00E000BF2F
:1025D000AB0000221146306808F032FB20636561D1
:1025E000AA003046216BFFF7C3FF70BD2DE9F05FF5
:1025F00080460E46404600F019F90746781CB0F1B7
:10260000805F04D3D8F8000008F04CFB00E000BF66
:102610003B0100221146D8F8000008F011FBF062DF
:102620003761002505E00020F16A01EB05118860A3
:102630006D1CBD42F7DB00254EE0F06A00EB05148F
:102640004046FFF7ABFF8346BBF1040F32D009DCF5
:10265000BBF1000F0DD0BBF1010F0DD0BBF1030F8B
:1026600037D113E0BBF1130F1AD0BBF1140F30D1E7
:1026700021E00020A0602DE0A1464046FFF78EFF3C
:10268000C9F800000120C9F8080023E0A14640462F
:1026900000F0DFF8C9E900010320C9F8080019E0DB
:1026A000A146404600F0CBF8C9E900011320C9F863
:1026B00008000FE000BFA146404600F00AF982463C
:1026C000C9F800A09AF8040040F04000C9F80800DA
:1026D00000E000BF00BF6D1CBD42AEDBBDE8F09F57
:1026E0002DE9F04107460D46384600F09FF80646B2
:1026F000701CB0F1804F03D3386808F0D3FA00E0C3
:1027000000BFB30000221146386808F099FAA863A8
:10271000AE61B2003846A96BFFF72AFF384600F0D9
:1027200085F80646701C2649884203D9386808F0A7
:10273000B9FA00E000BF06EB46018B00002211460B
:10274000386808F07DFAE8632E62002406E0002075
:1027500004EB4402E96B41F82200641CB442F6DB4E
:1027600000241AE0384600F0B4F804EB4402E96BA8
:1027700041F82200384600F059F804EB4402E96BB6
:1027800001EB82014860384600F050F804EB440247
:10279000E96B01EB82018860641CB442E2DB3846DD
:1027A00000F044F80646002406E0384600F091F8B0
:1027B000296C41F83400641CB442F6DBBDE8F081BA
:1027C0005555551570B506460C461546304600F071
:1027D00080F8A064A06C00B9A564304600F026F82B
:1027E0006062304600F022F8A0623046FFF7D6FE65
:1027F000A0713046FFF7D2FEE0713046FFF7CEFE03
:10280000207221463046FFF7D3FE21463046FFF7BF
:10281000EDFE2146304600F08DF82146304600F0AE
:1028200022F821463046FFF75BFF70BD38B50446FD
:10283000042269462046FFF79BFE009838BD1CB570
:102840000446082269462046FFF792FEDDE90001B2
:102850001CBD1CB50446082269462046FFF788FEC9
:10286000DDE900011CBD2DE9F04107460D46384663
:10287000FFF7DCFF0646701CB0F1804F03D33868C9
:1028800008F010FA00E000BFB300002211463868DB
:1028900008F0D6F96863EE61002404E00020696B5B
:1028A00041F82400641CB442F8DB00240DE03868D1
:1028B00006F0FBFB696B41F82400686B50F82410AC
:1028C0003846AA6CFFF77EFF641CB442EFDBBDE81C
:1028D000F08130B58BB004462046FFF75FFE0A90CA
:1028E0000A98FF2804D104220AA92046FFF740FED7
:1028F0000A9810B900200BB030BD0A98401E0A900B
:1029000028280AD8694620460A9AFFF731FE20682F
:1029100069460A9A08F0DFFDEDE720680A9908F099
:102920002DFD054605F1100120460A9AFFF720FE0D
:102930002846E0E72DE9F04107460D463846FFF707
:1029400075FF0646701CB0F1005F03D3386808F0CD
:10295000A9F900E000BFF30000221146386808F032
:102960006FF92864EE60002404E00020296C41F82F
:102970003400641CB442F8DB00240EE03846FFF754
:102980000DFE296C01EBC40108713846FFF706FE05
:10299000296C01EBC4014871641CB442EEDBBDE854
:1029A000F08100002DE9F041054600220121284672
:1029B0000CF079FD0646FDF718FF84B2214604A00D
:1029C00000F064FA204602F0D5FB0120BDE8F0815A
:1029D0000D0A64656C61792074696D65203D25750B
:1029E0000D0A00002DE9F04105460022012128468C
:1029F0000CF059FD0646FDF7F8FEC4B2022C02DDCC
:102A00000020BDE8F0812046FFF74CFC214602A0E3
:102A100000F03CFA0120F4E70D0A4C454420303D1B
:102A200025750D0A000000002DE9F0410546002241
:102A3000012128460CF037FD0646FDF7D6FEC4B24C
:102A4000022C02DD0020BDE8F0812046FFF734FCB7
:102A5000214602A000F01AFA0120F4E70D0A4C45C5
:102A60004420313D25750D0A000000007CB5044668
:102A7000002521460C48006807F02AFF50B90020C5
:102A800000900346421E01460190074800680CF082
:102A900089F908B1012000E0002005460DB10020B1
:102AA0007CBD00BFFCE700001400002000BFFEE773
:102AB0007047704708B508490968C9084FF47A7229
:102AC000B1FBF2F14143009100BF00BF00994A1EE3
:102AD00000920029F9D108BD00000020704730B5F0
:102AE0008FB00546002401200590000406900020C8
:102AF000079002200C90C1030D910E9505A8FFF7D9
:102B000017F804460CB100BFFEE70F20009002202A
:102B10000190002002904FF4806003900020049008
:102B200002216846FEF7CEFE04460CB100BFFEE768
:102B30000FB030BD10B5FEF71BFE10BD1148006888
:102B400040F001000F490860084640680E490840FF
:102B50000C494860084600680C490840094908606B
:102B60000846006820F4802008600846406820F489
:102B7000FE0048604FF41F008860C80304490860E5
:102B800070470000001002400000FFF8FFFFF6FE53
:102B900008ED00E070B506460025746A20684069BB
:102BA000C0F3C01594F83900212805D125B10020C3
:102BB000E084204600F050F820684069C0F380159A
:102BC00094F83A00222805D125B10020E08520465E
:102BD00000F032F8E06B40F01000E0632046FFF7B1
:102BE0003AFA70BD70B505466C6A2868006800F056
:102BF0002000B0B90020E0852068C06820F4807013
:102C00002168C8602068406920F00100216848619F
:102C10002068406920F0400021684861202084F845
:102C20003A002046FFF73AFB70BD70B50446656A6E
:102C30002846FFF734FB70BD0168C96821F4907124
:102C40000268D1600168496921F00101026851619F
:102C5000202180F83A1070470168C96821F0C0014E
:102C60000268D160202180F83910704770B50446A1
:102C70002168096921F44051E26811432268116119
:102C80002269A1681143626941EA02052168C968A5
:102C900041F20C62914329432268D160216849695D
:102CA00021F44071A269114322685161564A21689A
:102CB000914254D1FEF7E2FE00EBC00101EB00119E
:102CC00062689200B1FBF2F100EBC00202EB00126D
:102CD00063689B00B2FBF3F26423B2FBF3F202EBF6
:102CE000C20303EB0212A1EB8201322202EB0111BB
:102CF0006422B1FBF2F101F0F00100EBC00202EB43
:102D0000001263689B00B2FBF3F26423B2FBF3F2A0
:102D100001EB021200EBC00101EB001163689B00A4
:102D2000B1FBF3F100EBC00303EB00136668B600E0
:102D3000B3FBF6F36426B3FBF6F303EBC30606EB33
:102D40000313A1EB8301322303EB01116423B1FBD5
:102D5000F3F101F00F0111442268916053E0FEF796
:102D60007DFE00EBC00101EB001162689200B1FB37
:102D7000F2F100EBC00202EB001263689B00B2FBB1
:102D8000F3F26423B2FBF3F202EBC20303EB021291
:102D9000A1EB8201322202EB01116422B1FBF2F1BC
:102DA00001F0F00100EBC00202EB001263689B002F
:102DB000B2FBF3F26423B2FBF3F201EB021200EB7D
:102DC000C00101EB001163689B00B1FBF3F100EB64
:102DD000C00303EB00136668B600B3FBF6F364268A
:102DE000B3FBF6F303EBC30606EB0313A1EB83017E
:102DF000322303EB01116423B1FBF3F101F00F0166
:102E000011442268916070BD0038014010B5002463
:102E1000124800680068C0F30010F0B16FF01000B5
:102E20000E49096808600D48FFF7E2F80C48006891
:102E30004068C0F5806084B222460A490A48FDF71E
:102E40002DFA0948A0F800440120074981F802043E
:102E5000820204490148FFF7BFF910BD7C0C002035
:102E6000BC0C00207C0800207804002000BFFEE796
:102E70000FB4024610B504A9034B039800F00EFAF4
:102E800010BC5DF814FB00000D6100080FB4054B89
:102E900010B503A9044A029800F000FA10BC5DF8CE
:102EA00014FB00000D610008700200200FB41CB577
:102EB0000246002007AC00290BD0491ECDE90021B5
:102EC000054B6A462146069800F0E8F9009A002171
:102ED00011701CBC5DF814FBCB390008490050EAA6
:102EE000C12018BF04204A0D18BF40F0010040F275
:102EF000FF72B2EB515F08BF40F00200012808BF2B
:102F00000520704702480068C0F3022070470000A7
:102F10000CED00E010B5002804DB0A07130E054A8B
:102F2000135406E00A07140E034A00F00F031B1F98
:102F3000D45410BD00E400E018ED00E000487047F4
:102F40007802002030B528B1144C031F00202168FE
:102F50000A4605E0084630BD9A4203D8104652683A
:102F6000002AF9D1002800D041680BD00468A3EBF7
:102F70000005A54204D11B681C440346046002E01E
:102F8000436000E023603AB11C68D51AA54203D122
:102F900015682C441C6052685A6030BD7C020020C9
:102FA0002DE9F0414F1E00EBC7010446D1E90001B5
:102FB00015461E4637F006020DD02A463346FDF769
:102FC0000EFB7F1E04EBC703D3E90023FDF760FA75
:102FD00037F00602F1D1022F25D0042F13D0062F8F
:102FE00018BFBDE8F0812A463346FDF7F8FAD4E968
:102FF0000A23FDF74DFA2A463346FDF7F0FAD4E9E5
:103000000823FDF745FA2A463346FDF7E8FAD4E9E6
:103010000623FDF73DFA2A463346FDF7E0FAD4E9E8
:103020000423FDF735FA2A463346FDF7D8FAD4E9EA
:103030000223FDF72DFA2A463346FDF7D0FAD4E9EC
:103040000023BDE8F041FDF723BA00002DE9F04769
:1030500082460F4C10480D4E0E4F001B4FF00008DB
:1030600020F007054FF0010900221146504603F0F9
:1030700087FF002802D1306810B10020BDE8F0873A
:103080003C60C4E90058C6F80090EDE780020020DB
:10309000040D00207C020020008D00200022134639
:1030A00010460149FDF70DBB0000F03FFDF7F0B9F8
:1030B0000022134610461146FDF703BB40F20132D1
:1030C00000204FF0E041FDF745BD0000024A00201E
:1030D0001107FDF73FBD000001FDFFFF02E008C83A
:1030E000121F08C1002AFAD170477047002001E082
:1030F00001C1121F002AFBD170470000014908607E
:1031000070470000780200202DE9FF5F82B00021A7
:10311000DDE90430020DDDF840B0034318D044F679
:103120001050A2F2FF3242431514119801281FD00B
:10313000A5EB0B00401C5FEA000A4FF000064E4F63
:10314000DFF83891B046504615D5CAF1000413E0B7
:10315000119801244AA3012801D16FEA0B010298BA
:10316000119AC0E90031C0E9024206B0BDE8F09F03
:10317000CBF10000DFE704460021404A491842EB4A
:103180000450CDE9001012E0E00707D032463B467C
:1031900040464946FDF723FA8046894632463B467B
:1031A00010461946FDF71BFA06460F466410002C20
:1031B000EAD1DDE90401DDE90023BAF1000F06DA06
:1031C000FDF70DFA42464B46FDF709FA05E0FDF71B
:1031D00078FA42464B46FDF774FA04460E46002242
:1031E000284BFDF759FB03D84FF0FF30014607E0AD
:1031F0000022254B20463146FDF74AF9FDF755FDE3
:10320000102409E0002C0ADB0A220023FCF7ACFFA3
:10321000039B30321A55641E50EA0102F2D1641C3D
:10322000039AC4F111031444119A012A03D0012214
:1032300008430DD10AE0084304D000204FF0110BE1
:10324000119072E7A3EB0B056D1E0DE05B4504DDED
:103250004FF0000205F1010504E003DA4FF000022F
:10326000A5F10105002AECD002981199C0E90231BC
:10327000C0E9004579E70000000014400000F03F7D
:10328000300000000000F0430000E03F30380A2822
:1032900001D2012070470020704700002DE9FF4F48
:1032A00095B09B468946064600250FE2252877D132
:1032B00000242746F84A0121059400E0044316F84B
:1032C000013F203B01FA03F01042F7D130782A2861
:1032D00011D06FF02F033078A0F13002092A16D8F0
:1032E000059A44F0020402EB820203EB420210440E
:1032F000761C0590EFE759F8042B0592002A03DAB3
:10330000504244F40054059044F00204761C307896
:103310002E2816D116F8010F44F004042A280DD0E7
:103320006FF02F023078A0F13003092B09D807EB9A
:10333000870302EB4303C718761CF3E759F8047BB5
:10334000761C30786C280FD006DC4C2817D0682803
:103350000DD06A2814D104E0742810D07A280FD137
:103360000DE044F400140AE044F4801401E044F455
:1033700040147278824202D104F58014761C761CC7
:10338000307866280BD013DC582877D009DC002869
:1033900075D04528F6D04628F4D047281AD19DE1AB
:1033A00018E0632835D0642879D0652812D195E1DA
:1033B000702873D008DC6728F1D069286FD06E2898
:1033C0000DD06F2806D1B5E073282CD0752875D0A4
:1033D000782874D05A46179990476D1C75E1C4F34C
:1033E0000250022809D003280DD0D9F80010042873
:1033F0000DD00D6009F1040967E1D9F80010EA1752
:10340000C1E90052F6E7D9F800100D80F2E70D701F
:10341000F0E719F8041B8DF8001000208DF801006A
:10342000EA46012003E059F804AB4FF0FF30610792
:103430004FF0000102D40DE008F101018846B942C5
:103440000FDA8045F8DB1AF808100029F4D108E0FB
:1034500008F1010188468142FADB1AF808100029B8
:10346000F6D105985B46A0EB080721463846179A27
:1034700000F094FA284400EB080507E04DE029E14C
:103480000DE01AF8010B5A4617999047B8F1010858
:10349000F7D25B4621463846179A13E142E00A22EA
:1034A0000092C4F302524FF0000A022A08D059F8E1
:1034B00004CB032A4FEAEC710AD00DE029E02AE0A0
:1034C00009F1070121F00702F2E802C1914609E083
:1034D0000FFA8CFC4FEAEC71042A03D14FFA8CFCF2
:1034E0004FEAEC71002907DA0A460021DCF1000CF2
:1034F00061EB02012D2202E0220504D52B228DF87A
:103500000420012203E0E20701D02022F7E79046E1
:1035100059E00A2102E010220DE010214FF0000ACC
:1035200000910BE010224FF0000A44F00404082739
:10353000009203E008224FF0000A0092C4F3025206
:10354000022A05D059F804CB0021032A08D009E04B
:1035500009F1070121F00702F2E802C1914605E0F6
:103560001FFA8CFC042A01D10CF0FF0C4FF000086C
:10357000220728D5702806D0009B83F0100353EA59
:103580000A0305D00EE040228DF80420012208E055
:103590005CEA010206D030228DF804208DF8050087
:1035A00002229046009B83F0080353EA0A030AD1E3
:1035B0005CEA010201D1620705D530228DF80420B2
:1035C0004FF001087F1E582804D034A003900EA8A5
:1035D00002900DE036A0F9E753466046009AFCF7EA
:1035E000C3FD84460398825C0298401E02900270DC
:1035F0005CEA0100F0D1029806A9081A00F1200A3D
:10360000600702D524F4803400E00127574502DD2D
:10361000A7EB0A0000E0002000EB0A0100900598EB
:103620004144401A0590E00306D45B462146179AB0
:10363000059800F0B3F90544002706E001A85A46B2
:10364000C05D179990476D1C7F1C4745F6DBE00372
:103650000CD55B462146179A059800F09FF9054462
:1036600004E030205A46179990476D1C0099481E77
:1036700000900029F5DC08E0029802995A4600788B
:10368000491C0291179990476D1CBAF10001AAF1EB
:10369000010AF1DC65E10000092801003031323314
:1036A000343536373839616263646566000000007E
:1036B0003031323334353637383941424344454668
:1036C0000000000000F058F90544761C307800280E
:1036D0007FF4ECAD19B02846BDE8F08F620700D446
:1036E000062709F1070222F0070CFCE80223E14655
:1036F00003F000485FEA080C02D00FF2702C0DE0D6
:103700005FEA045C02D50FF2682C07E05FEAC47C34
:1037100002D00FF2602C01E0AFF2700C4FF0FF38D6
:1037200023F00043CDF850C065280CD006DC4528B6
:1037300009D046281DD047283DD13DE0662818D045
:1037400067287ED138E00021112F01DB112000E035
:10375000781CCDE9000106A90EA8FFF7D5FCDDE92C
:103760000F010E9A03910021009207F1010A0491C2
:103770004DE04FF000400097CDE9011006A90EA8DA
:10378000FFF7C2FCDDE90F0203920E9B11990022A4
:10379000DDF80CA00093049211B9791C00EB010A2A
:1037A000B7EB0A0004D4C0F1FF3007F1010A04901E
:1037B000AAEB0700019044E0012F00DA0127002165
:1037C000112F01DD112000E03846CDE9000106A9E6
:1037D0000EA8FFF799FCDDE90F010E9A0391002175
:1037E00004910092BA4621070CD40399514500DA9E
:1037F0008A46BAF1010F05DD009AAAF10101515C78
:10380000302908D0B84202DA10F1040F06DA01219B
:10381000CDE9011015E0AAF10101E9E7002805DC76
:10382000049901440491AAEB000102E0411C5145B6
:1038300000DD8A460499401A401C01904FF0004078
:103840000290200704D40198504501DBCDF8048094
:1038500000208DF84F0002980DF14F07B0F1004F96
:1038600025D02B200E9002984FF0020800280CDA89
:10387000404202902D200E9007E00A210298FDF7A9
:103880005EF83031029007F8011DB8F10001A8F18F
:103890000108F2DC02980028EFD1791E0E9808701A
:1038A000307800F0200040F0450007F8020D12A823
:1038B000C01B00F107081498007800B1012000EB4C
:1038C0000A01019801EBE07105984144401A401E3D
:1038D0000590E00306D45B462146179A059800F050
:1038E0005DF805441498007818B15A461799904726
:1038F0006D1CE00324D55B462146179A059800F01D
:103900004DF805441CE00498002807DBDDE90301BD
:10391000884203DD0098405C179901E01799302038
:103920005A469047049805F10105401C04900198FF
:10393000401E019004D12E205A46179990476D1CC5
:10394000BAF10001AAF1010ADDDC05E017F8010B6C
:103950005A46179990476D1CB8F10001A8F101086B
:10396000F4DC5B462146179A0598ABE62D00000073
:103970002B000000200000002DE9F0410446002546
:103980001E461746880404D405E039462020B04777
:103990006D1C641EF9D52846BDE8F0812DE9F04183
:1039A000044600251E469046C80301D5302700E096
:1039B0002027880404D505E041463846B0476D1CF1
:1039C000641EF9D52846BDE8F0814A68002A06D071
:1039D0000A68531C0B6010704868401E48607047AE
:1039E0002DE9FC5F06468A461746B068D0F834B029
:1039F0003468B0685246016C584605F0CBFF8046EB
:103A0000D8F8080013281AD1D8F80050F069A84255
:103A100015DDE06A00EB0510007A00F03F00397A0E
:103A200001F03F0188420AD1E06A00EB05113A46F5
:103A3000002008F005F910B12846BDE8FC9FD4F835
:103A40001090F5694046E917C0E9005113218160E3
:103A5000681C216981420CDA1CA06FF07C41CDE921
:103A60000010102304F110025846E16A07F0A2F892
:103A7000E06207E00022484609F10109E36A03EB2E
:103A80000010826020694845F4DCE16A01EB051012
:103A900097E80E1080E80E10F069401CF061387A4B
:103AA00000F0400070B1607900F0040050B1386857
:103AB000407900F0030028B1214658463A6804F0E6
:103AC0002BFD00E000BF2846B7E70000636F6E7370
:103AD00074616E74730000002DE9FC470746D7F847
:103AE00034903D6B2C68286AE16988421EDBD4F86B
:103AF0001C80286A401CE16988420BDD19A01C4922
:103B0000CDE90010042304F11C024846616B07F064
:103B100051F8606306E00022404608F10108636B3B
:103B200043F82020E0694045F5DC00BF484605F039
:103B3000BCFA06462A6A511C2962616B41F82200D0
:103B4000607900F0040048B1707900F0030028B1FA
:103B500032462146484604F0DFFC00E000BF304614
:103B6000BDE8FC8766756E6374696F6E7300000054
:103B7000FFFF03002DE9F04706460F4690461D461D
:103B8000D6F83090A7EB080428780D2802D02878C2
:103B90000E280FD1641C002C00DA0024224629468E
:103BA000484606F0CEFB012C18DD611E484606F0A3
:103BB0001FFB13E0287818B12946484606F0AEF8F6
:103BC000002C0BDD99F82CA02146484606F010FB8E
:103BD00022465146484606F0B3F900BFB84508DD15
:103BE000306B90F82C00A8EB0701401A316B81F87C
:103BF0002C00BDE8F0872DE9F04703460C46A57977
:103C0000DF68A7EB0216D868002114E0DF6807F12F
:103C1000100CC3F80CC006EB011ADAE900C8DAE9A7
:103C2000029AC7E900C8C7E9029A002706EB011CFF
:103C3000CCF80870491CA94201DA9142E6DB09E0A0
:103C40004FF0000CD3F80C8008F11007DF60C8F8C3
:103C500008C0491CA942F3DBBDE8F08770B50646F1
:103C60000C46356B95F82A00204485F82A0008E0B8
:103C700095F82A00011B284602F0FCFE29694160E4
:103C8000641E002CF4D170BD10B502469068132854
:103C90000ED1D2E9000100242346241A8B4106DA12
:103CA0004FF000440023241A8B4100D310BD00BF05
:103CB0000020FBE7F0B58FB004460D461646287A83
:103CC000082802DB287A0A2803DD2AA120460AF008
:103CD00043FC2C2120460EF09EFCE0B1009502A989
:103CE00020460EF05DFB9DF808000A2804D002AAC9
:103CF0002946204600F036FC626BB2F86E2091191E
:103D000020A3C822206B00F0F0FC721C69462046FC
:103D1000FFF7D0FF1EE03D21204600F046FD08A938
:103D2000204601F084FC0746B74206D008AB3A466D
:103D300031462046FFF71EFF0BE008A9206B06F076
:103D4000DDFA08AA05F10801206B06F02AFB0FB086
:103D5000F0BD00BF206B90F82C00421E072108A880
:103D600003F072F808AA05F10801206B06F019FBB0
:103D700000BFECE773796E746178206572726F72C0
:103D80000000000043206C6576656C730000000045
:103D90002DE9F04705462C69D4F85090082084F8A6
:103DA0003D0000202061687900F0030018B1294629
:103DB00020460DF06DFB3020005D00F0400040B16A
:103DC000A06A407900F0030018B12046A16A0DF006
:103DD0005FFB20460BF070FD20460DF094FC204662
:103DE0000CF074FE2669C4F84C9020460CF06EFE70
:103DF00000202061204601F0EDF800222046616D90
:103E000000F03EFD00222046E16D00F039FD676DB7
:103E1000D4F85C8020690644002120460DF033FE72
:103E20000120E06620460BF037FD20460CF04EFEE8
:103E300000202061204601F0CDF800222046A16D2F
:103E400000F0F8FC00222046E16D00F0F3FC3A4659
:103E50002046616D00F014FD42462046E16D00F001
:103E60000FFD204607F06BFA94F83C0080F0030049
:103E700084F83C00206906443046BDE8F087000025
:103E80002DE9F0410446069F207A00F03F00062805
:103E900014D0262834D12568012902DBA87988426C
:103EA00002DA0020BDE8F081481E05F1100606EB9D
:103EB0000010106003B11D6012A0F3E72568D5F86B
:103EC0000CC0012903DBDCF80C00884201DA002079
:103ED000E8E7481E05F1100858F820000068106057
:103EE0001FB1481E58F820003860481EDCF840809A
:103EF00058F830600EB904A0D4E706F11000D1E7FD
:103F00000020CFE700000000282A6E6F206E616D50
:103F1000652900002DE9F04780460F4614461D46EE
:103F2000089E4FF001095CE038786C2813D006DC5D
:103F30004C284FD0532809D066284DD14BE06E282D
:103F40003BD074282FD0752846D112E02946204650
:103F500002F07EFA43E046B196F8220000F002003B
:103F600018B1304601F0DCF801E04FF0FF3060613D
:103F700035E00DB9002000E0A87984F8200015B1E3
:103F80002879262806D1012084F82200002084F810
:103F9000210007E0E868C07984F82200E8688079A9
:103FA00084F821001BE026B196F8220000F02000E2
:103FB00000E0002084F8230011E0221D3146404635
:103FC00002F0ACFCA060A06818B909A0A0600020B5
:103FD000606004E000BF02E04FF0000900BF00BFD6
:103FE0007F1C387800289FD14846BDE8F087000044
:103FF000000000002DE9F84304460F469046414674
:10400000204607F033FA0646B868452802D0002556
:10401000002009E03146386805F0F8FA0546A8683E
:1040200008B1012000E0002040B1E06895E80E10E2
:1040300080E80E10E0681030E06012E0E068314681
:1040400001600A7942F040028260E0681030E0606E
:104050000095E068A0F110031A463946204609F0A1
:1040600087FEE06810F8080C00F00F00BDE8F88348
:1040700070B506460C4625463046D5E900120DF0CF
:1040800085FD70BD2DE9F84304460E469046414635
:10409000204607F0EBF90746B068452802D0002516
:1040A00000202AE03946306805F0B0FA0546A868D5
:1040B00008B9002021E0E06810F8080C00F040008A
:1040C00080B13068407900F0040058B1E06850F8E1
:1040D000100C407900F0030020B12046316804F054
:1040E00035FA00E000BFE06850F8101DD0E9012368
:1040F000C06885E80E00E860012018B1E06810385B
:10410000E06016E0E068394601600A7942F040025A
:104110008260E0681030E0600095E068A0F1200364
:10412000A0F110023146204609F0A6FEE0682038D2
:10413000E060BDE8F88300002DE9F04704460F4633
:10414000904600210D460E4689462DA12046FCF7DB
:104150000FF9044420782D2803D1641C4FF0010985
:1041600003E020782B2800D1641CFCF77FF800685E
:104170002178405C00F0380010B90020BDE8F087DD
:1041800000BFFCF773F800682178405C202802D15A
:104190002078303803E02078FCF775F8373882460D
:1041A000BA4501DB0020E9E7FB172946A1FB070C14
:1041B00006FB07C205FB032310EB0A0543EBEA7677
:1041C00004F10104FCF752F800682178405C00F02B
:1041D00038000028D5D10AA12046FCF7C9F80444CC
:1041E000B9F1000F05D000200146401B61EB06012C
:1041F00001E028463146C8E900012046BEE700003C
:10420000200C0A0D090B00007FB50446256B002227
:104210006946284601F094F820460EF034F8284606
:1042200003F021FA7FBD02461069B0F5837F0FD0FD
:1042300006DCB0F5827F09D0A0F2051068B906E06F
:10424000A0F2151038B10C2807D102E000BF00BF62
:1042500000BF012070470846FCE70020FAE7000095
:10426000F0B591B004460F4615461E462046FFF7AE
:1042700033FC05900598466201AA05A920460BF07B
:10428000BEFD2821204600F090FA45B1042212A17B
:1042900020460BF031FC01212046FFF7DFFC2046D1
:1042A0000BF036FE2921204600F07FFA20460DF063
:1042B000EAFF606805998862334640F20912D11E10
:1042C000204600F093F93946204600F06FFC204666
:1042D00000F00AFB11B0F0BD73656C6600000000D1
:1042E0007FB505460C4668460460012181606A4638
:1042F00069462846FFF774FB04B070BDF8B5044664
:104300000CA1606B07F0B2F80646206B00690090C4
:10431000606C00F118010023324620460BF0FEFBD2
:104320000546606C806900EB0511204601F016FB24
:10433000F8BD0000627265616B00000070B5044654
:10434000256903E000212046FCF7FAFE286E0028CC
:10435000F8D170BD70B505460C4600266069001D99
:104360006061A06890F8220000F0020060B1A068CF
:10437000406910F8040C00F03F00252804D1608C3F
:1043800040F02000608404264FF0FF32314628467A
:1043900004F07EFA6069001F606170BD70B504466C
:1043A0000D462069A84203D02946204601F04EF868
:1043B00070BD000070B504462BA0411C2CA2204605
:1043C00000F0A2F92046FEF7E9F802462AA001789B
:1043D00030392AA00078303801EB0010824203D037
:1043E00027A1204601F016F82046FEF7D7F818B1AD
:1043F00028A1204601F00EF82BA22EA1204600F0A5
:1044000083F92EA20421204601F0DCF92CA204211C
:10441000204601F0D7F92CA20421204601F0D2F960
:104420002CA20821204601F0CDF92DA2082120461A
:1044300001F0C8F92046FEF702FA45F278635840C9
:10444000084303D029A1204600F0E4FF2046FEF7F0
:1044500000FA054600222B4BFCF706FA03D02AA1EE
:10446000204600F0D7FF70BD1B4C756100000000B6
:104470006E6F742061000000330000003500000002
:1044800076657273696F6E206D69736D61746368B0
:1044900020696E00666F726D6174206D69736D6165
:1044A00074636820696E0000636F72727570746562
:1044B0006400000019930D0A1A0A0000696E740066
:1044C00073697A655F740000496E73747275637402
:1044D000696F6E006C75615F496E74656765720027
:1044E0006C75615F4E756D6265720000656E646922
:1044F000616E6E657373206D69736D61746368209E
:10450000696E000000287740666C6F617420666FEA
:10451000726D6174206D69736D6174636820696E7A
:10452000000000002DE9F04105460C4694F83E00DD
:10453000012815D0E668D4E90710C21700EB927283
:10454000B1EBA20F06DA276A07EBD77041102846B5
:1045500006F0FDFFE168891B60690844606100BFE7
:10456000BDE8F0812DE9F84F07460C461546D7F80F
:10457000308098F82C604FF000091CE0207A0A285F
:1045800018D1E07C2978884208D1A07CA9688842AB
:1045900004D14FF001090821E174A6742878082895
:1045A00008D1B4F91000A968884203D14FF001097D
:1045B00031B221822468002CE0D1B9F1000F13D070
:1045C0002878082801D1002000E00520824600203C
:1045D0000090324651464046AB6805F087FA01210B
:1045E000404605F005FE00BFBDE8F88F2DE9F84F05
:1045F00004460F4616461D46394620460EF00BF877
:10460000E8B96068A84204D13946204600F01EFF90
:1046100015E03146204609F0A9FF8146394620467B
:1046200009F0A4FF824600954B46524605A1606BF7
:1046300006F0DBFC80464146204609F08DFFBDE8D0
:10464000F88F0000257320657870656374656420B9
:1046500028746F20636C6F7365202573206174204C
:104660006C696E65202564290000000070B5044661
:104670000D462068A84212D1A06B0168481EA26BAB
:10468000106031B1A06B4168481CA26B5060087883
:1046900002E0A06B09F0D8FF2060012070BD00206F
:1046A000FCE770B504460D4629782068884203D09F
:1046B00069782068884216D1204621680DF07AF981
:1046C000A06B0168481EA26B106031B1A06B4168FD
:1046D000481CA26B5060087802E0A06B09F0B4FFA0
:1046E0002060012070BD0020FCE72DE9F041074665
:1046F0000D4614461E46A54204DD32462146384684
:1047000000F0C0FEBDE8F081FEB507460D46164636
:104710002846FBF7F1FD0446224669463846FDF778
:1047200027FF224669462846FBF7FBFD18B13146B4
:10473000384600F06FFEFEBD70B506460C461546C5
:1047400074B129782046FBF7CDFD48B923462A46A7
:1047500004A1304606F049FC0321304604F0FCFA7F
:1047600070BD0000617474656D707420746F206C8E
:104770006F61642061202573206368756E6B20284B
:104780006D6F646520697320272573272900000059
:1047900070B504460D4620460DF08BFD06463246A8
:1047A0002946204600F0B5FA70BD70B504460D46A6
:1047B00029462046FFF7F2FD204609F082FE70BD33
:1047C0002DE9F04104460D461746E068466817E0BB
:1047D000286800EB06100068B84210D1296801EB88
:1047E00006118B68A16807F11002486B07A106F05B
:1047F000FCFB80464146A0680DF03BF900BF761CEB
:104800006868B042E4DCBDE8F08100006C6162657C
:104810006C202725732720616C72656164792064A0
:104820006566696E6564206F6E206C696E65202513
:10483000640000002DE9F04780460C4617461BE057
:104840002646F27901209040316901EB4019356923
:104850000FE0A86838B105F11001404602F057FC9E
:1048600008B10020A860A86810B928460CF07CFFA9
:1048700020354D45EDD3E469BC42E1D1BDE8F08778
:104880002DE9F05F82460D46904629E02E46F279EA
:1048900001209040316901EB401B00270BE0F068DC
:1048A00000EB07194946504602F031FC10B10020D8
:1048B000C9F808007F1CB068B842F0D834690CE031
:1048C000A06848B12146504602F021FC20B10020EA
:1048D000A06020460CF048FF20345C45F0D3ED6921
:1048E0004545D3D1BDE8F09F2DE9F0410646776BF1
:1048F000356B2C6800221146284605F086FC2846B8
:1049000002F0B1FE2869401CB0F1804F03D3384655
:1049100006F0C8F900E000BF2869830060698200E2
:104920003846216B06F08CF920632869606128699C
:10493000401CB0F1804F03D3384606F0B3F900E0D5
:1049400000BF28698300A06982003846A16B06F089
:1049500077F9A0632869A061E869401CB0F1805F25
:1049600003D3384606F09EF900E000BFE869030172
:10497000206902013846E16A06F062F9E062E869FE
:104980002061286A401CB0F1804F03D3384606F0FE
:1049900089F900E000BF286A8300E0698200384698
:1049A000616B06F04DF96063286AE061B5F9280093
:1049B00000EB40008300206A00EB40008200384694
:1049C000E16B06F03DF9E063B5F92800206295F847
:1049D0002B00C300E068C2003846216C06F030F9B5
:1049E000206495F82B00E060686830633869C0681F
:1049F000002803DD384603F07DFE00BFBDE8F081EE
:104A000070B5044625692046216A04F045FA20461F
:104A100003F0FAFDD5F8800000B100BF2069006AFC
:104A20008200206900238169204606F009F92046AA
:104A300001F04EFC211F00234FF44E72D5E90060B7
:104A4000B04770BD2DE9FC5F074688469146386B3C
:104A50000190786C00F10C04206800EB0816307BA4
:104A600099F80C10884216DA317B019802F002F8AE
:104A7000D0F800A00AF110000090316801F1100296
:104A8000B36813A1786B06F0B0FA834659463846EE
:104A90000CF0EFFF00BFD9F804207168019805F011
:104AA000C0FA45460BE0206800EB05110246681C81
:104AB00002EB001C9CE80D10A1E80D106D1C606855
:104AC000401EA842EFDC6068401E6060BDE8FC9FAD
:104AD0003C676F746F2025733E206174206C696E93
:104AE00065202564206A756D707320696E746F206F
:104AF0007468652073636F7065206F66206C6F63E8
:104B0000616C20272573270070B505460C46207878
:104B100000B970BD2146284605F000F9002020703C
:104B2000606A322808D1D4E90823A0698168284640
:104B300005F0A2FB0020606200BFEAE7F8B5074677
:104B40000C4615461E46384605F017F92B462246F8
:104B500003213846009604F0C9FFF8BD2DE9F84F4F
:104B600006460F4614461D46DDF828802946304685
:104B700005F05EF881462146304605F059F8824638
:104B80002A462146304601F013FB5346002239469F
:104B90003046CDF8009004F0A9FFA0600C202070F2
:104BA0004146304605F0E2F8BDE8F88F2DE9F041C6
:104BB00004460D46206B4668306A431E00222C21B5
:104BC000304604F0A6FF07463A460C21284602F07C
:104BD0003BF92946304605F0A1F8BDE8F0812DE902
:104BE000F84F81460D4614461F462078042803D10D
:104BF000A06840F4807000E0A068804639464846CE
:104C000005F016F806463A462146484601F0D0FA25
:104C1000102D04D0112D0BD0122D18D109E04346D0
:104C200000221F214846009600F00FF9A0601BE00B
:104C300000BF05F10F0000F0FF0A33460122514684
:104C40004846CDF8008000F000F9A0600CE005F1C6
:104C5000120000F0FF0A43460122514648460096E2
:104C600000F0F3F8A06000BF00BF0B202070BDE88B
:104C7000F88F70B505460C462E2040EA8411284670
:104C800004F0F4FE70BD38B505460C4621462846B2
:104C900004F08DFF20780D282CD2DFE800F02B07E0
:104CA0000E080B0C0D172B2B2B11160000BF02202A
:104CB000207020E000BF00BF00BF032020701AE07A
:104CC000214628460AF0CBFE15E000BF21462846C3
:104CD00000F080FA2146284601F05FFA002000909B
:104CE00002461B212846A36804F000FFA0600C20A8
:104CF000207000E000BF00BF606921696161206130
:104D0000284661690CF03CFD284621690CF038FD0D
:104D100038BD2DE9F04104460D4616463146206B5C
:104D200005F082FB07463A460421284602F08CF83B
:104D3000BDE8F0812DE9F84306460F4614461D46AE
:104D40002146304604F0B9FF80462146304601F046
:104D500024FA00204346024639460090304604F0CB
:104D6000C5FEA0600C2020702946304604F0FEFFEE
:104D7000BDE8F8832DE9F04786B004460D4615B12D
:104D80002879262806D10020E1688860E068103084
:104D9000E06025E0E868D0F838A0204604F04EFC3A
:104DA0008146E0684946016045228260E068103033
:104DB000E06002A801210160816000260BE002A8EA
:104DC00000905AF82600C31707463A46494620463F
:104DD00004F0F8FD761CE8688069B042EFDC00BFA3
:104DE00006B0BDE8F087F0B502460B460024002669
:104DF0000020002501210CE052F825703FB152F847
:104E000025703C44B4EB510F01D9084626466D1C71
:104E1000490019B11F68B7EB510FEDD81E60F0BD06
:104E200010B586B004466946204600F01AFC9DF88D
:104E30000000012802D103208DF800006946206B94
:104E400004F0CAFF059806B010BD2DE9F8430446EA
:104E50000D4616461F46DDF820803B463246294661
:104E60002046CDF8008004F041FE204605F052F8BF
:104E7000BDE8F8832DE9F0438FB007468846144615
:104E800099460AA920460DF0D6FB50B106A948461E
:104E90000DF0D1FB28B106AA0AA940460EF02BF866
:104EA00018B900200FB0BDE8F08302A80090B968DF
:104EB00006AB0AAA486B414605F010FF0498132878
:104EC00006D106202070DDE90201C4E9020116E0E6
:104ED000DDE902562A46334628463146FBF7C4FC34
:104EE00006D10022134628463146FBF7BDFC01D10E
:104EF0000020D7E705202070C4E9025600BF01203A
:104F0000D0E72DE9F0418CB004460F46256BD4F86C
:104F100004800020034602460B210090284604F03E
:104F2000E5FD064600200B9009900A90089732464E
:104F30000C21384601F088FF0022114602A801F03A
:104F400083FF3946206B04F0E9FE7B212046FFF702
:104F50002CFC00BF20697D2800D113E002A928465F
:104F6000FFF7D2FD02A9204600F05EFC2C2120466E
:104F70000DF051FB0028EDD13B2120460DF04BFBFD
:104F80000028E7D100BF43467B227D212046FFF762
:104F90002DFB02A9284602F039FB0A9806F00CF80E
:104FA0002968096B51F8261060F3DF512868006BFF
:104FB00040F82610099805F0FFFF2968096B51F8A1
:104FC000261060F396312868006B40F826100CB06C
:104FD000BDE8F0812DE9F041044600BFA76D002037
:104FE000A065002609E0EF69294620460DF0ABFBDD
:104FF00018B120460BF06AFD01263D1EF3D1002EAC
:10500000ECD1BDE8F0812DE9F04105460C4617468C
:105010004FF0000800BFA5EB0410006800790428D9
:1050200004D1A5EB04100068C07903E0A5EB0410DF
:105030000068C06806463246A5EB04131B6803F1FE
:10504000100107EB0800FBF729F9B044601E041EAD
:10505000E1DCBDE8F08130B50A46C568AD1A2D1116
:10506000046A04EB0514C460436A07E0046A1D681F
:10507000AD1A2D1104EB05141C609B68002BF5D1B3
:1050800041691AE0046A4D68AD1A2D1104EB05144C
:105090004C60046A0D68AD1A2D1104EB05140C6008
:1050A00091F8224004F0020434B1046A0D69AD1A8B
:1050B0002D1104EB05140C6189680029E2D130BD83
:1050C0002DE9F04107460C463846FEF7DDFD054662
:1050D00055B1284605F0CCFE04EB80063068401C34
:1050E00030600120BDE8F0810020FBE72DE9F047AA
:1050F00081460E461746984606F1110A5246394631
:10510000484603F0CDFA05462C46C4F80880002036
:10511000A071002104F1100081552046BDE8F08700
:1051200010B5044620680068C068806B48B120460E
:1051300000F00AF821680968C968896B51F82000F5
:1051400010BD4FF0FF30FBE701460A68486912685E
:10515000D268126B801A0122C2EBA00070470000D7
:1051600010B504460420FCF715FF0148046010BD8B
:105170001000002030B50446002504E04FF47A709A
:1051800000F004F86D1CA542F8D330BD70B503469D
:1051900000224FF0E02675690D4E366803FB06F4D9
:1051A0004FF0E026B16910E04FF0E026B069884288
:1051B0000BD0884202D20E1A324402E02E1A0E445C
:1051C00032440146A24200D300E0EDE700BF70BDCB
:1051D0001000002070B504460D46287807280AD034
:1051E0000121204605F004F894F82C00421E2946BF
:1051F000204600F001F870BD2DE9F84306460C4644
:1052000015462146304604F0D2FC20780D2854D2B1
:10521000DFE800F053070E0D1D233047535353535F
:105220003D0001222946304604F08AFE47E000BFD7
:10523000002000902078022801D1012000E0002009
:1052400003462A460321304604F050FC37E0294645
:105250003046A26804F06CFC31E0D4E902733A46AF
:10526000304604F0B5FE81464A462946304604F0F1
:105270005FFC24E0D4E902733A46304604F034FE81
:1052800081464A462946304604F052FC17E0316810
:10529000096BA26801EB8200016865F38D11016062
:1052A0000DE0A068A84207D0002000902A460146E1
:1052B0003046A36804F01AFC01E0BDE8F88300BFA3
:1052C000A5600720207000BFF7E738B504462069C5
:1052D0000090FF2320462269A1690AF065FE4FF085
:1052E000FF30A06138BD000010B5002405F000FBC0
:1052F000084908600846006808B9002010BD054844
:1053000000680AF045F9034800680AF075F900BF23
:10531000F4E700001400002070B504460D46164660
:10532000204609F02DFC401E70BD70B504460D46A8
:10533000E068A0F120010022204603F05AFA70BD77
:105340008A7390F82A300B7383685B6CDB694B605F
:1053500083685B6C1B698B6000234B73C3680B60B5
:10536000C160704770B50446656B35F86E0F401C20
:10537000288035F86E1903A3C822206BFFF7B5F912
:1053800070BD000043206C6576656C730000000002
:1053900070B505462C69022084F83D00012204F115
:1053A000400128460DF05CF8606470BD2DE9F843BB
:1053B00006460C461546FDF7C1FDD0F8009048465C
:1053C000FAF7F4FF07460022294630460AF031F882
:1053D00000F101084346224609A13046009709F032
:1053E0008BFD4FF0FF322946304609F0C3FE6FF0C7
:1053F0000101304609F065FF0720BDE8F883000091
:1054000063616E6E6F742025732025733A202573B7
:105410000000000070B504460D462B4604A1A268AA
:10542000206805F0E2FD0321206803F095FC70BDC3
:1054300025733A20257320707265636F6D70696CF7
:105440006564206368756E6B000000002DE9F04113
:1054500004460D462946204609F088F807463A4694
:1054600005A1606B05F0C1FD06463146204609F0F6
:1054700073F8BDE8F08100002573206578706563DE
:10548000746564002DE9F84F04460D469046A06807
:10549000D0F834902068476A0FB90BA004E03A4670
:1054A0000DA1484605F0A1FD82462B4642460FA1BC
:1054B0004846CDF800A005F098FD06463146A068A4
:1054C00009F04AF8BDE8F88F6D61696E2066756E67
:1054D0006374696F6E00000066756E6374696F6E49
:1054E000206174206C696E6520256400746F6F20E4
:1054F0006D616E7920257320286C696D697420694F
:10550000732025642920696E2025730070B5044638
:105510000D461646EDB92068401CA0B12046216812
:105520000CF048FAA06B0168481EA26B106031B104
:10553000A06B4168481CA26B5060087802E0A06B29
:1055400009F082F8206040F225123146204602F030
:10555000C9F870BD30B587B004466946204600F0F2
:1055600080F86946206B04F0D9FB029D284607B0FD
:1055700030BD2DE9F84F06460C4615462A46214611
:105580003046FFF739FE20780B2805D104F11001D1
:105590003046A26804F0E9FAD4E9040188423DD01B
:1055A0004FF0FF37B846304621690AF03FFA20B97C
:1055B000304661690AF03AFAE0B120780B2802D14E
:1055C0004FF0FF3002E0304604F0A4FC8146012396
:1055D000002229463046FFF7B1FA07460023012290
:1055E00029463046FFF7AAFA80464946304604F07D
:1055F0002CFD00BF304604F0C0FB824600972B46CE
:105600005246304661690AF0CFFCCDF800802B4647
:105610005246304621690AF0C7FC00BF4FF0FF3008
:1056200020616061A56007202070BDE8F88F70B52B
:1056300004460E4601253146204600F012F808E0E7
:105640003146206B04F06AFB3146204600F009F831
:105650006D1C2C2120460CF0DEFF0028F0D12846DE
:1056600070BD70B504460D460022294620460CF058
:105670003BFE70BD30B589B00446256B02A92046BB
:105680000CF08EFE20693D2802D020692C2807D11D
:1056900000200090012269462046FEF70BFB15E032
:1056A0009DF808000D2803D009A1204608F054FFFA
:1056B0002868016B049851F820000949084040F41B
:1056C00080412868026B049842F8201009B030BD70
:1056D00073796E746178206572726F7200000000D9
:1056E000FF3F80FF70B506460C4625463046D5E99B
:1056F000001203F07EF870BD70B504460E462569B1
:10570000214620460CF0BEFC2946204601F0A3FBB2
:10571000204605F079FE204606F042F8204608F0C3
:1057200069FE012085F83F00002009F027FFC5F839
:10573000800070BD2DE9FC4180460D462C46206856
:105740000168481E2268106031B120684168481C19
:1057500022685060087802E0206808F075FF07466C
:1057600012A00078B8420BD112A24046616BFEF73E
:10577000E3FF4046A26B216806F0D8F806460FE02A
:105780000EA24046616BFEF7D7FFA06BCDE9000784
:1057900004F11003221D4046216808F00DFF064663
:1057A0003146404603F032FCBDE8FC811B4C75617C
:1057B0000000000062696E6172790000746578749F
:1057C000000000002DE9F04104460D461646204633
:1057D000FCF7E4FEA84209D0324605A1206805F096
:1057E00004FC074639462046FFF714FEBDE8F08169
:1057F00025732073697A65206D69736D61746368C0
:1058000020696E00014600BF054800680068C0F3CB
:1058100040100028F8D003480068C0F30800704723
:105820007C0C00200438014070B504460D46206908
:105830005B2811D0B0F5927F13D1204608F002FE0C
:105840003D2804D02946204601F070FF03E0294698
:1058500020460BF08DFE09E0294620460BF088FE1D
:1058600004E02946204601F061FF00BF00BF70BD83
:1058700070B586B004460D46266B2946304604F0C6
:105880003EFA204608F01DFE69462046FEF780FFDE
:105890006A462946304604F0D3FA06B070BD024687
:1058A0008A4202DA4FF0FF3070471046FCE70000F2
:1058B00070B505460E46144634B14FF0FF31284608
:1058C00009F040FE052801D0002070BD284609F0EF
:1058D00036FB38E06FF00101284609F033FE04285A
:1058E0002CD1421F3146284609F084FB30B16FF0BD
:1058F0000101284609F0E5FC0120E6E7621E314679
:105900002846FFF7D5FFC8B14FF0FF3251002846B7
:1059100009F030FC6FF00101284609F0D2FC0EA11D
:10592000284609F01DFB0122D11E284609F022FC61
:105930000321284608F058FF0120C6E76FF0010157
:10594000284609F0BEFC6FF00101284609F00EFA66
:105950000028BFD100BFB8E72E0000002DE9F041BC
:1059600005460E46686C00F10C07286BC068846819
:105970000DE0386800EB041000683168884205D1FA
:10598000324621462846FFF75DF800E0641C78683F
:10599000A042EEDCBDE8F0812DE9F04781460E46DD
:1059A0001446A06810B90020BDE8F0872046FEF735
:1059B0006BF9074627B1B068B84201D33846F3E720
:1059C0002146304609F0BCFE054600BF224605F1DF
:1059D0001001002006F034F950B9A8690A280ED148
:1059E000207A00F0400050B128692168884206D131
:1059F0003069281A4711781CB1680844D4E7D5F8F3
:105A00001C80B8F1000F04D103A1484603F034FC18
:105A1000DCE705EB4815D9E7696E76616C696420AF
:105A20006B657920746F20276E65787427000000FD
:105A30002DE9F04704468A46206BD0F80C80656C4F
:105A4000E86800EB0A19D8F8047023E0A86900EBB5
:105A500007163068D9F8001088421AD199F80C005E
:105A6000317B88420DDD98F80D0020B9E869D8F83F
:105A70000410884205DD327BD9F80410206B04F055
:105A8000B7FA324651462046FEF7DCFF0120BDE85A
:105A9000F0877F1CE869B842D8DC0020F7E700E017
:105AA000006801680029FBD1704700002DE9FC5F08
:105AB0008146884614464FF0FF3001904FF0000AAF
:105AC00000255BE0D9F8300050F8257007F03F0B57
:105AD000C7F38716BBF1240F28D006DCBBF1040FF7
